:020000040800F2
:10000000B8830120E9FD040855EA040857EA04080A
:1000100059EA04085BEA04085DEA040800000000ED
:10002000000000000000000000000000E59403084C
:100030005FEA0408000000008D940308D94C03080F
:100040001D0A0508210A0508250A0508290A0508C8
:100050002D0A0508310A0508350A0508390A050878
:100060003D0A0508410A0508450A0508490A050828
:100070004D0A0508510A0508550A0508590A0508D8
:100080005D0A0508610A0508650A0508690A050888
:100090006D0A0508710A0508750A0508790A050838
:1000A0007D0A0508810A0508850A0508890A0508E8
:1000B0008D0A050861EA0408910A0508950A0508F1
:1000C000990A05089D0A0508A10A0508A50A050858
:1000D000A90A0508AD0A0508B10A0508B50A050808
:1000E000B90A0508BD0A0508C10A0508C50A0508B8
:1000F000C90A0508CD0A0508D10A0508D50A050868
:10010000D90A0508DD0A0508E10A0508E50A050817
:10011000E90A0508ED0A0508F10A0508F50A0508C7
:10012000F90A0508FD0A0508010B0508050B050875
:10013000090B0508F74703080D0B0508110B050807
:10014000150B0508190B05081D0B0508210B0508E3
:10015000250B0508290B05082D0B0508310B050893
:10016000350B0508390B05083D0B0508410B050843
:10017000450B0508490B05084D0B0508000000005C
:10018000510B0508550B0508FCB5DDF81CE0089E71
:100190000F689A421ED01478412C06DB14785B2C31
:1001A00003DA147854F0200400E01478A4461EF812
:1001B00007505FFA8CFCAC4508D17F1CB74203D1D5
:1001C00000258DF800500FE0521CE2E702258DF863
:1001D000005009E00F6001248DF800400192DDE934
:1001E0000045C0E9004506E000240C600192DDE90D
:1001F0000045C0E90045F3BDFCB5DDF81CE0089EF4
:100200000F689A4216D0147854F02004A4461EF8C1
:1002100007505FFA8CFCAC4508D17F1CB74203D174
:1002200000258DF800500FE0521CEAE702258DF8FA
:10023000005009E00F6001248DF800400192DDE9D3
:100240000045C0E9004506E000240C600192DDE9AC
:100250000045C0E90045F3BDFCB5DDF81CE0089E93
:100260000F689A4214D01478A4461EF807505FFA1B
:100270008CFCAC4508D17F1CB74203D100258DF81A
:1002800000500FE0521CECE702258DF8005009E009
:100290000F6001248DF800400192DDE90045C0E9BE
:1002A000004506E000240C600192DDE90045C0E94C
:1002B0000045F3BD0300022083F82F0000207047A3
:1002C00090F82800704710B4040084F8293000200A
:1002D00010BC704790F82900052801D1012000E0EA
:1002E0000020C0B270470300002083F82A000020DD
:1002F00070470300092083F82B0000207047008E10
:10030000C0B2C009C0B2704790F82E00012801D1D8
:10031000012000E00020C0B270470300002083F8F5
:100320002F000020704790F82D00C0B2800810F018
:1003300001007047008E10F40870B0F5087F01D1FD
:10034000012000E00020C0B2704790F82D00C0B23C
:10035000400810F00100704730B40300002400256D
:10036000C3E90845002030BC70472DE9F0030500C3
:100370000C0094461A00D5E9086700205FF0805110
:100380008F4204D301D8864201D3012036E0D5E95B
:1003900008015FF010085FF00009A8FB006708FB88
:1003A000017709FB0077C5E90867002A10D45FF0E0
:1003B000FF305FF0FF31D317861A71EB0307D5E9E1
:1003C00008018F4211D801D386420ED2012015E0D8
:1003D000D5E90801D317564273EB4307B94204D855
:1003E00001D3B04201D2012008E0D5E9086710002E
:1003F000D11730187941C5E908010020BDE8F003A4
:10040000704730B4D0E90845002D03D1002C01D14C
:10041000012000E00020C0B230BC70470300188EFD
:1004200050F080001886002070470300012083F8F8
:100430002F00002070470300188E50F040001886EF
:10044000002070470300012083F82E000020704731
:1004500010B4040084F82C30002010BC704790F8D1
:100460002C0070470300188E50F001001886002001
:1004700070470300012083F82C0000207047030020
:10048000188E50F002001886002070470300188E66
:1004900050F004001886002070470300188E50F0BA
:1004A00008001886002070470300062083F82C00FF
:1004B0000020704790F82D0010F0010070470300F5
:1004C000002083F82C00002070470300052083F8EB
:1004D0002C00002070470300072083F82C00002028
:1004E0007047008EC0B2400910F0010070472DE93E
:1004F000F00305000C0094461A00D5E9086721486E
:1005000021498F4204D301D8864201D3012036E02D
:10051000D5E908015FF00A085FF00009A8FB006751
:1005200008FB017709FB0077C5E90867002A10D4AA
:100530005FF0FF305FF0FF31D317861A71EB0307CE
:10054000D5E908018F4211D801D386420ED201208D
:1005500015E0D5E90801D317564273EB4307B942BA
:1005600004D801D3B04201D2012008E0D5E90867E0
:100570001000D11730187941C5E908010020BDE805
:10058000F00370479A999999999999190300188ECF
:1005900050F020001886002070470300188E50F499
:1005A000007018860020704710B403001C8E4FF6B0
:1005B000F77004401C86002010BC70470300082020
:1005C00083F82C00002070470300188E50F01000B4
:1005D00018860020704790F82900704710B4040076
:1005E00084F82A30002010BC704710B4040084F84E
:1005F0002B30002010BC70470300002058860020DC
:10060000704730B40400658E41F69A10854201DBD4
:1006100001201DE0658E0A2015FB00F06086002B8E
:1006200007D44FF6FF75ED1A608E854206DA012079
:100630000EE0608ED84201DA012009E0608E1818C1
:100640006086608EB0F57A7F01DB012000E000203B
:1006500030BC70470300012083F828000020704759
:100660000300022083F8280000207047F8B504003A
:1006700038250026270032002900380003F0ECFD61
:10068000B620E0610020F2BD2DE9F84F84B00700EC
:100690000E001400387F012800F0C981C3F01681D4
:1006A000032800F0E281C0F0C981052800F0F08144
:1006B000C0F0E681072800F01F82C0F00A820928F6
:1006C00000F04C82C0F01F820B2800F05F82C0F067
:1006D0004F820D2800F07982C0F06B820F2800F065
:1006E0003483C0F09082112800F0E183C0F0D983F8
:1006F000132800F01184C0F00584152800F01D8433
:10070000C0F01184172800F06484C0F052841928C6
:1007100000F07E84C0F064841B2800F09984C0F04F
:1007200090841D2800F0CA84C0F0B3841F2800F014
:100730000985C0F0E184212800F04585C0F01585C9
:10074000232800F08E85C0F06585252800F0D68529
:10075000C0F0AE85272800F0E785C0F0DA852928AB
:1007600000F04F86C0F002862B2800F06E86C0F0A5
:100770005C862D2800F08B86C0F075862F2800F04F
:10078000C586C0F0A686312800F0DE86C0F0D68689
:10079000332800F00987C0F0F986352800F0528729
:1007A000C0F02487372800F08E87C0F07187392881
:1007B00000F0D587C0F0AD873B2801F01F80C0F066
:1007C000F7873D2801F04780C1F03B803F2801F0CA
:1007D0005B80C1F05180412801F0B980C1F0818077
:1007E000432801F0D180C1F0BE80452801F0368158
:1007F000C1F01F81472801F00C82C1F0898149288E
:1008000001F08D82C1F038824B2801F0AD82C1F039
:100810009F824D2801F0FF82C1F0F6824F2801F03F
:100820009A83C1F04B83512801F0AA83C1F0A183C0
:10083000532801F0B383C1F0AA83552801F06C84DA
:10084000C1F01184572801F08F84C1F071845928B8
:1008500001F0B484C1F08F845B2801F0DB84C1F027
:10086000CF845D2801F0F484C1F0DE845F2801F0BC
:100870001885C1F00785612801F04A85C1F03785E8
:10088000632801F09585C1F06D85652801F0CD855F
:10089000C1F0BC85672801F0EA85C1F0D7856928D9
:1008A00001F03686C1F009866B2801F04E86C1F052
:1008B00040866D2801F09A86C1F06D866F2801F0A0
:1008C000C686C1F0A186712801F01287C1F0E586C5
:1008D000732801F04487C1F03187752801F09087B3
:1008E000C1F06387772801F0D787C1F0AF877928F7
:1008F00001F0F287C1F0DF877B2802F02980C1F088
:10090000FC877D2802F06380C2F03B807F2802F0E4
:10091000AF80C2F08780812802F0E180C2F0CE80F3
:10092000832802F02F81C2F00781852802F07E81A2
:10093000C2F04E81872802F09681C2F08881892812
:1009400002F0CB81C2F0A3818B2802F0F781C2F0C4
:10095000D8818D2802F04682C2F01E828F2802F0D4
:100960009582C2F06582912802F0B582C2F0A7821A
:10097000932802F0E582C2F0D482952802F0198310
:10098000C2F00683972802F04B83C2F02383992894
:1009900002F08583C2F06E839B2802F0D183C2F0FF
:1009A000A4839D2802F00384C2F0DB839F2802F019
:1009B0005184C2F02984A12802F08E84C2F05B84A5
:1009C000A32802F0AA84C2F09C84A52802F0008526
:1009D000C2F0F784A72802F02D85C2F00085A9286F
:1009E00002F04285C2F03085AB2802F0AC85C2F03F
:1009F0005F85AD2802F01A86C2F0BF85AF2802F0ED
:100A00008386C2F02886B12802F0DF86C2F0A8866D
:100A1000B32802F01387C2F00087B52802F02887B8
:100A2000C2F01887B62802F0308702F04FBFA64206
:100A300002D1012003F05EBB761CF8E722003100F2
:100A4000380003F0AEFC012802F05087220031008C
:100A50003800FFF762FC220031003800FFF763FC2A
:100A6000012842F04A8702F047BF1620F860DFF8FD
:100A7000B00B38617E610220F861002003F03ABBC0
:100A8000220031003800FFF73FFC0028D6D0ECE709
:100A900022003100380003F0F7FD002802D01528AD
:100AA00001D00BE0ECE71520F860DFF8780B386137
:100AB0007E610420F861002003F01CBB1220F86066
:100AC000DFF8640B38617E610020F861002003F0DC
:100AD00011BBA64202D1062003F00CBB761C2200FB
:100AE0003100380003F010FE002802F0348715288A
:100AF00002F0338702F03BBFA64202D1072003F089
:100B0000F9BA761CE5E7B4EB0608D7E908AB5FF065
:100B10000009D94516D301D8D04513D35644002037
:100B20000021C7E90801D7F804900020786032005E
:100B30004946380003F0B8FD0100002942F024873F
:100B400002F028BFD7E9082340460021101A73EBB2
:100B50000101C7E90801082003F0CCBAA64202D17E
:100B6000092003F0C7BA7E60DFF8900BB860CAE7CF
:100B7000220031003800FFF744FC0028EED02200AC
:100B800031003800FFF74AFC00F065BEA64202D1F2
:100B90000B2003F0AFBA761C22003100380003F0BE
:100BA000A3FD002802F0F886152802F0F78602F06F
:100BB000FFBEA64202D10C2003F09CBA30780D286B
:100BC00001D1761CE2E7761CF3E7A64202D10D20A4
:100BD00003F090BA30780D2804D0202804D03B28A8
:100BE00004D005E0761CD1E7761CE2E7761CE0E74E
:100BF0000C20F860DFF89C0B38617E610020F86102
:100C0000002003F077BAA64202D10E2003F072BA98
:100C1000307830282AD031282DD0322830D03328CF
:100C200033D0342836D0352839D036283CD0372830
:100C30003FD0382842D0392845D0412848D04228D2
:100C40004BD043284ED0442851D0452854D0462874
:100C500057D061285AD062285DD0632860D06428BC
:100C600063D0652866D0662869D06DE0761C0020C8
:100C7000050002F0A9BE761C0120050002F0A4BE0A
:100C8000761C0220050002F09FBE761C03200500A2
:100C900002F09ABE761C0420050002F095BE761C78
:100CA0000520050002F090BE761C0620050002F02B
:100CB0008BBE761C0720050002F086BE761C08203D
:100CC000050002F081BE761C0920050002F07CBE02
:100CD000761C0A20050002F077BE761C0B2005006A
:100CE00002F072BE761C0C20050002F06DBE761C70
:100CF0000D20050002F068BE761C0E20050002F0F3
:100D000063BE761C0F20050002F05EBE761C0A2032
:100D1000050002F059BE761C0B20050002F054BEFF
:100D2000761C0C20050002F04FBE761C0D2005003D
:100D300002F04ABE761C0E20050002F045BE761C6D
:100D40000F20050002F040BE3FE7A64202D10F206F
:100D500003F0D0B9307830282AD031282DD032286D
:100D600030D0332833D0342836D0352839D03628FF
:100D70003CD037283FD0382842D0392845D04128A8
:100D800048D042284BD043284ED0442851D0452843
:100D900054D0462857D061285AD062285DD06328A5
:100DA00060D0642863D0652866D0662869D06DE07D
:100DB000761C0020050002F007BE761C012005000D
:100DC00002F002BE761C0220050002F0FDBD761C7A
:100DD0000320050002F0F8BD761C0420050002F097
:100DE000F3BD761C0520050002F0EEBD761C062042
:100DF000050002F0E9BD761C0720050002F0E4BD05
:100E0000761C0820050002F0DFBD761C09200500D5
:100E100002F0DABD761C0A20050002F0D5BD761C72
:100E20000B20050002F0D0BD761C0C20050002F05E
:100E3000CBBD761C0D20050002F0C6BD761C0E2031
:100E4000050002F0C1BD761C0F20050002F0BCBDFC
:100E5000761C0A20050002F0B7BD761C0B200500A9
:100E600002F0B2BD761C0C20050002F0ADBD761C70
:100E70000D20050002F0A8BD761C0E20050002F032
:100E8000A3BD761C0F20050002F09EBD0C20F8606B
:100E9000DFF8000938617E610020F861002003F06E
:100EA00029B9220031003800FFF756FA4DE7B4EBBC
:100EB0000608D7E908AB5FF00009D94516D301D879
:100EC000D04513D3564400200021C7E90801D7F8C4
:100ED00004900020786032004946380003F0E4FBBB
:100EE0000100002942F0848502F088BDD7E908237B
:100EF00040460021101A73EB0101C7E908011120D7
:100F000003F0F8B8A64202D1122003F0F3B87E60D5
:100F1000DFF8E807B860CAE7A64202D1132003F061
:100F2000E9B8761CF8E7A64202D1142003F0E2B833
:100F30007E60DFF8C807B860EEE7220031003800B5
:100F400003F0DCF9012807D026D3032812D010D3F0
:100F5000052816D00FD31FE022003100380003F01F
:100F600093FB002802F0E184152802F0E08402F0EF
:100F7000E8BC96E7C6E7220031003800FFF755FAD3
:100F8000D1E70F20F860DFF8800B38617E61002028
:100F9000F861002003F0AEB822003100380003F001
:100FA00073FB002802F02C85152802F02B8502F037
:100FB00033BDA64202D1162003F09CB8761C220055
:100FC00031003800FFF79BF9012842F0938502F0C9
:100FD00085BD22003100380003F036FB00F03BBC39
:100FE000A64202D1182003F085B87E60DFF81C0B02
:100FF000B860D7F80480002078603200414638009D
:1010000003F002FB0100002942F07C8502F080BD64
:10101000A64202D1192003F06DB83078092802D019
:10102000202802D003E0761C70E2761C6EE22200DB
:1010300031003800FFF713FA022842F0978502F0DA
:101040008BBDA64202D11A2003F054B8761CDFE70C
:10105000A64202D11B2003F04DB83078092802D0F7
:10106000202801D001E034E233E2220031003800D0
:10107000FFF7F5F9052802F08E85C2F0A58507284F
:1010800002F09585C2F08D85082802F0968502F061
:101090009BBDA64202D11C2003F02CB830780A2850
:1010A00001D1761CD4E70320F860DFF89C0B38618F
:1010B0007E610020F861002003F01CB8A64202D136
:1010C0001D2003F017B830780A2802D00D2802D06E
:1010D00010E002F07BBDD7F8048000207860320079
:1010E0004146380003F090FA0100002942F08C8557
:1010F00002F091BD761CE1E7A64202D11E2002F06B
:10110000F9BF30780A2802D00D2802D010E002F092
:101110005DBDD7F804800020786032004146380079
:1011200003F072FA0100002942F0648502F069BD03
:10113000220031003800FFF7BDF9012842F0708528
:1011400002F06CBDA64202D11F2002F0D3BFDFF82F
:10115000FC0A3178405C012802D0022802D003E06A
:10116000761CEFE7761CA3E0C6E7A64202D120205A
:1011700002F0C0BF30780A2806D00D2805D02028FC
:1011800004D02C2804D018E0B6E7B5E7761CECE7CD
:10119000761C220031003800FFF761F9052802F0C3
:1011A0005885C2F06F85072802F05F85C2F0578529
:1011B000082802F0608502F065BD22003100380089
:1011C000FFF77DF9BEE7A64202D1212002F092BFCF
:1011D00004200190DFF8780A0090230032003900E3
:1011E00002A8FEF7D1FF039806009DF8080000282A
:1011F00003D002280BD007D30AE0761C220031006E
:101200003800FFF751F9B0E7212002F073BF99E7EA
:1012100003F094FAA64202D1222002F06BBF09200B
:101220000190DFF8680B009023003200390002A81B
:10123000FEF7AAFF039806009DF80800002803D0D7
:1012400002280BD007D30AE0761C220031003800B8
:10125000FFF73BF989E7222002F04CBF72E703F069
:101260006DFAA64202D1232002F044BF062001906D
:10127000DFF81C0B009023003200390002A8FEF7B3
:1012800083FF039806009DF80800002803D0022879
:101290000BD007D30AE0761C220031003800FFF79C
:1012A0001AF962E7232002F025BF4BE703F046FA64
:1012B000A64202D1242002F01DBF3078412806DB6F
:1012C00030785B2803DA307850F0200000E0307886
:1012D000092808D0202808D0632808D06B2808D017
:1012E000752808D009E0761CE2E7761CE0E7761C5A
:1012F00069E7761C8EE7761CB3E723E70B20F860DE
:10130000DFF8B00B38617E610020F861002002F048
:10131000F1BE0B20F860DFF8A00B38617E61002081
:10132000F861002002F0E6BEA64202D1272002F0BA
:10133000E1BE30780A2804D00D2804D0202804D03B
:1013400005E002F0C0BC02F0BEBC761CECE7D7F8AA
:1013500004800020786032004146380003F054F9E0
:101360000100002942F0B68402F0BABCA64202D1C4
:10137000282002F0BFBE307830280FD040D332286A
:1013800016D010D334281DD017D3362824D01ED31E
:1013900038282BD025D339282DD031E0761C0020D9
:1013A000050002F079BC761C0120050002F074BC37
:1013B000761C0220050002F06FBC761C032005009D
:1013C00002F06ABC761C0420050002F065BC761CA5
:1013D0000520050002F060BC761C0620050002F026
:1013E0005BBC761C0720050002F056BC761C08206A
:1013F000050002F051BC761C0920050002F04CBC2F
:1014000092E7A64202D1292002F074BE30780A2861
:1014100004D00D2804D0202804D005E002F06EBCD2
:1014200002F06CBC761CECE731E0A64202D12A2027
:1014300002F060BE3078092802D0202802D003E0F4
:10144000761CF2E7761CF0E721E0A64202D12B20C1
:1014500002F050BEDFF8700B3178405C012801D1FA
:10146000761CF2E748E6A64202D12C2002F042BEEA
:10147000DFF8580B3178405C012802D0022802D0F6
:1014800003E0761CEFE7761CCFE702F03EBCA642F5
:1014900002D12D2002F02EBE07200190DFF8300B84
:1014A000009023003200390002A8FEF7A5FE039841
:1014B00006009DF80800002803D0022806D002D3B9
:1014C00005E0761C9DE72D2002F014BECBE703F06B
:1014D00035F9A64202D12E2002F00CBE7E60DFF864
:1014E0002C06B860220031003800FEF7B8FF012852
:1014F00002F01284C2F02C84032802F01784C2F098
:101500000D84042802F01E8402F022BCA64202D1FF
:101510002F2002F0EFBD3078092806D00A2806D027
:101520000D2806D0202806D007E0761CEEE7761CB2
:101530006EE5761C85E5761CE8E7CAE722003100F7
:10154000380003F051F8E1E7A64202D1312002F061
:10155000D1BD30783A280ED1D7F8048000207860C9
:1015600032004146380003F01FF80100002942F024
:10157000FB8302F000BC0A20F860DFF8940B3861AE
:101580007E610020F861002002F0B4BDA64202D1C5
:10159000322002F0AFBDDFF87C0B3178405C0128CF
:1015A00001D1761CF2E7CFE7A64202D1332002F048
:1015B000A1BD3078202802D03A2802D010E0761C55
:1015C000F2E7D7F804800020786032004146380006
:1015D00002F0EAFF0100002942F0BC8302F0C1BB27
:1015E000220031003800FEF76AFFCFE7A64202D1A1
:1015F000342002F07FBD06200190DFF8BC0B009084
:1016000023003200390002A8FEF7BEFD0398060051
:101610009DF80800002809D002280FD00BD30FE056
:1016200060E7040898E70408FCB80408761C012069
:10163000050002F0A3BB342002F05CBD02F0A6BBA3
:1016400003F07CF8A64202D1352002F053BD0A20F7
:101650000190DFF8A80B009023003200390002A8A7
:10166000FEF792FD039806009DF80800002803D0BD
:10167000022809D005D309E0761C0220050002F0FB
:101680007DBB352002F036BD02F080BB03F056F87A
:10169000A64202D1362002F02DBD3078412806DB6B
:1016A00030785B2803DA307850F0200000E03078A2
:1016B0006E2802D0742802D003E0761C96E7761CD0
:1016C000C0E702F063BBA64202D1372002F012BD90
:1016D00002200190DFF8A40B0090230032003900B3
:1016E00002A8FEF751FD039806009DF808000028A7
:1016F00006D0022809D005D309E000BFA94600089A
:10170000761CC5E7372002F0F5BC02F03FBB03F0C2
:1017100015F8A64202D1382002F0ECBC0F2001904F
:10172000DFF85C0B009023003200390002A8FEF7BE
:101730002BFD039806009DF80800002803D002281E
:1017400009D005D309E0761C0120050002F016BB84
:10175000382002F0CFBC02F019BB02F0EFFFA64226
:1017600002D1392002F0C6BC10200190DFF8D40B62
:10177000009023003200390002A8FEF705FD03980F
:1017800006009DF80800002806D002280CD008D3D7
:101790000CE000BF7CE10408761C0320050002F089
:1017A000EDBA392002F0A6BC02F0F0BA02F0C6FF92
:1017B000A64202D13A2002F09DBC06200190DFF83B
:1017C000880B009023003200390002A8FEF7DCFCF1
:1017D000039806009DF80800002803D0022809D0CD
:1017E00005D309E0761C0420050002F0C7BA3A20B0
:1017F00002F080BC02F0CABA02F0A0FFA64202D1F9
:101800003B2002F077BC3078412806DB30785B283B
:1018100003DA307850F0200000E03078632806D0FA
:10182000702806D0742806D0752806D007E0761CEC
:1018300049E7761C6DE7761C91E7761CB8E702F065
:10184000A5BAA64202D13C2002F054BC7E60DFF86B
:10185000940BB860D2E7A64202D13D2002F04ABC08
:1018600030780A2802D00D2802D004E0FFF7A1BB8F
:10187000761CFFF79EBBE4E7A64202D13E2002F0B1
:1018800039BC761C02F089BAA64202D13F2002F090
:1018900031BC02200190DFF8500B00902300320091
:1018A000390002A8FEF7D8FC039806009DF808004E
:1018B000002803D0022807D003D310E0761C02F0E2
:1018C0006CBA3F2002F016BC0720F860DFF81C0B52
:1018D00038617E610020F861002002F00BBC02F04C
:1018E0002DFFA64202D1402002F004BC0A20019044
:1018F000DFF8FC0A009023003200390002A8FEF74E
:10190000ABFC039806009DF80800002803D00228CD
:1019100010D00CD319E0711C1720F860DFF8D00B41
:10192000386179610020F861002002F0E3BB4020BB
:1019300002F0E0BB0920F860DFF8B80B38617E6187
:101940000020F861002002F0D5BB02F0F7FEA642AD
:1019500002D1412002F0CEBB30780A2801D1761C9A
:1019600079E702F03BBAA64202D1422002F0C2BBA4
:1019700030780A2802D00D2802D003E0761C6AE7EE
:10198000761CE4E702F02ABAA64202D1432002F014
:10199000B1BB307830280FD040D3322816D010D3C6
:1019A00034281DD017D3362824D01ED338282BD066
:1019B00025D339282DD031E0761C0020050002F017
:1019C0001FBA761C0120050002F01ABA761C02200C
:1019D000050002F015BA761C0320050002F010BACB
:1019E000761C0420050002F00BBA761C05200500C9
:1019F00002F006BA761C0620050002F001BA761C39
:101A00000720050002F0FCB9761C0820050002F052
:101A1000F7B9761C0920050002F0F2B90920F86038
:101A2000DFF8A80B38617E610020F861002002F029
:101A300061BBA64202D1442002F05CBB30782E2864
:101A400001D1761CA0E70920F860DFF8840B38612B
:101A50007E610020F861002002F04CBBA64202D15A
:101A6000452002F047BB307830280FD040D33228D1
:101A700016D010D334281DD017D3362824D01ED327
:101A800038282BD025D339282DD031E0761C0020E2
:101A9000050002F0C3B9761C0120050002F0BEB9B2
:101AA000761C0220050002F0B9B9761C032005005F
:101AB00002F0B4B9761C0420050002F0AFB9761C20
:101AC0000520050002F0AAB9761C0620050002F0E8
:101AD000A5B9761C0720050002F0A0B9761C0820E5
:101AE000050002F09BB9761C0920050002F096B9AA
:101AF0000920F860DFF8D80B38617E610020F861BA
:101B0000002002F0F7BA00BF24B904080946000813
:101B1000A64202D1462002F0EDBA04200190DFF87F
:101B2000B40B009023003200390002A8FEF794FBAA
:101B3000039806009DF80800002803D0022864D00E
:101B400060D364E0761C220031003800FEF743FDCC
:101B5000002802F06B81022802F06C81C2F06881DB
:101B6000042802F06B81C2F06781062802F06A81C6
:101B7000C2F06681082802F06981C2F065810A28F6
:101B800002F06881C2F064810C2802F06781C2F023
:101B900063810E2802F06681C2F06281102802F093
:101BA0006581C2F06181122802F06481C2F0608117
:101BB000142802F06381C2F05F81162802F062816E
:101BC000C2F05E81182802F06181C2F05D811A289E
:101BD00002F06081C2F05C811C2802F05F81C2F0DB
:101BE0005B811E2802F05E81C2F05A81202802F03B
:101BF0005D81C2F05981222802F05C81C2F05881D7
:101C000002F05AB9462002F075BA02F05EB902F04D
:101C100095FDA64202D1472002F06CBA0320019044
:101C2000DFF8BC0B009023003200390002A8FEF759
:101C300013FB039806009DF8080000280AD002282C
:101C400016D012D316E000BF4CB90408840000205F
:101C50004C090508761C220031003800FEF7BBFC59
:101C6000212842F03D8102F039B9472002F042BA02
:101C700002F02BB902F062FDA64202D1482002F028
:101C800039BA04200190DFF85C0B00902300320089
:101C9000390002A8FEF7E0FA039806009DF8080054
:101CA000002803D0022836D032D336E0761C22003A
:101CB00031003800FEF78FFC012802F01D81032857
:101CC00002F01C81062802F01B81232802F01A81F1
:101CD000242802F01981252802F01881262802F014
:101CE0001781272802F01681282802F0158129285B
:101CF00002F014812A2802F013812B2802F01281AD
:101D00002C2802F011812D2802F0108102F010B968
:101D1000482002F0EFB902F0D8B802F00FFDA64259
:101D200002D1492002F0E6B93078202806D04828B0
:101D300006D0492806D0522806D007E0761CEEE7E8
:101D4000761CE5E6761C64E7761C95E702F0BDB8E4
:101D5000A64202D14A2002F0CDB9761C2200310001
:101D6000380002F0E1FBDAE7A64202D14B2002F094
:101D7000C1B9DFF8BC0B3178405C01280AD038D3F8
:101D8000032818D008D3042824D032E060000508C6
:101D900068070508761CE7E7D7F80480002078601C
:101DA00032004146380002F09EFB0100002942F05B
:101DB000D08002F0D4B8D7F80480002078603200D8
:101DC0004146380002F08FFB0100002942F0C98033
:101DD00002F0CDB8D7F80480002078603200414688
:101DE000380002F080FB0100002942F0C28002F0BE
:101DF000C6B80720F860DFF83C0B38617E61002030
:101E0000F861002002F076B9A64202D14C2002F01F
:101E100071B9761CA8E7A64202D14D2002F06AB93A
:101E2000DFF8E00B3178405C012807D036D3032877
:101E300015D005D3052830D020D32FE0761CEAE753
:101E4000D7F804800020786032004146380002F064
:101E50004AFB0100002942F0948002F098B8D7F8BC
:101E600004800020786032004146380002F03BFBDD
:101E70000100002942F08D8002F091B8D7F804806B
:101E80000020786032004146380002F02CFB01004F
:101E9000002942F0868002F08AB8B5E70720F86092
:101EA000DFF8640B38617E610020F861002002F0E9
:101EB00021B900BF6CF2040814C30408A64202D181
:101EC0004E2002F017B930780A2808D00D2815D016
:101ED000202822D023282FD03F282FD030E0D7F839
:101EE00004800020786032004146380002F0FBFA9E
:101EF0000100002941F0628701F066BFD7F8048035
:101F00000020786032004146380002F0ECFA01000F
:101F1000002941F05B8701F05FBFD7F80480002003
:101F2000786032004146380002F0DDFA01000029F5
:101F300042F0078002F00BB8761C15E7761C6AE7C2
:101F40000720F860DFF8CC0B38617E610020F86173
:101F5000002002F0CFB8A64202D14F2002F0CAB84A
:101F6000DFF8B40B3178405C012801D1761CF2E730
:101F7000A4E7A64202D1502002F0BCB8761CEAE7E2
:101F8000A64202D1512002F0B5B8761CE3E7A64282
:101F900002D1522002F0AEB8761CDCE7A64202D194
:101FA000532002F0A7B8DFF8740B3178405C0128A9
:101FB00010D04DD303282BD01BD3052839D036D3CE
:101FC000072839D036D343E0840100208402002062
:101FD00070070508D7F80480002078603200414679
:101FE000380002F080FA0100002941F0FA8701F080
:101FF000FEBFD7F8048000207860320041463800E8
:1020000002F071FA0100002941F0F38701F0F7BFF7
:10201000D7F804800020786032004146380002F092
:1020200062FA0100002941F0EC8701F0F0BF761C54
:1020300019E0ACE7761CEEE6711C0720F860DFF8CB
:10204000C40B386179610020F861002002F052B8B9
:102050000720F860DFF8B00B38617E610020F8617E
:10206000002002F047B8A64202D1542002F042B844
:10207000DFF8980B3178405C01280AD03DD3032863
:1020800025D015D3052833D030D3072833D030D30B
:1020900033E0D7F8048000207860320041463800F1
:1020A00002F021FA0100002941F0838701F087BF87
:1020B000D7F804800020786032004146380002F0F2
:1020C00012FA0100002941F07C8701F080BFD7F8A7
:1020D00004800020786032004146380002F003FAA4
:1020E0000100002941F0758701F079BF761CBAE73D
:1020F00046E7761C8FE6761C50E70720F860DFF88D
:10210000080B38617E610020F861002001F0F2BF09
:10211000CCF2040884030020A64202D1552001F02D
:10212000E9BF30782F2801D1761C9CE701F071BF00
:10213000A64202D1562001F0DDBF30780A2806D031
:102140000D2807D0202808D02F2809D00AE0761CB7
:1021500001F0BEBB761C01F0BBBB761C01F0B8BB26
:10216000761CD9E701F055BFA64202D1572001F0F5
:10217000C1BF761CDCE7A64202D1582001F0BABFED
:10218000DFF88C0A3178405C012804D009D3032899
:1021900005D003D305E0761C01F09ABBE4E7761C7A
:1021A000E9E70720F860DFF8C80B38617E6100209E
:1021B000F861002001F09EBF60070508A64202D129
:1021C000592001F097BFDFF8AC0B3178405C012853
:1021D00004D008D3032805D003D304E0761C01F013
:1021E00077BBC6E6C7E70720F860DFF88C0B3861DD
:1021F0007E610020F861002001F07CBF6C000508C2
:10220000A64202D15A2001F075BF7E60DFF86C0B48
:10221000B860D3E7A64202D15B2001F06BBF7E60BD
:10222000DFF8580BB8601EE7A64202D15C2001F02F
:1022300061BF3078202801D1761CF5E722003100FB
:102240003800FEF747F8002841F0EE8601F0EABEBC
:10225000A64202D15D2001F04DBF3078202801D187
:10226000761CE1E70620F860DFF8F80B38617E6144
:102270000020F861002001F03DBF00BF7EA30208EE
:1022800078FB0408A64202D15E2001F033BF30780B
:102290004C2804D1761C1320050001F0C7BE01F0C4
:1022A000CDBEA64202D15F2001F024BF06200190DE
:1022B000DFF8B40B009023003200390002A8FDF7CC
:1022C000CBFF039806009DF80800002803D00228E1
:1022D00009D005D309E0761C2420050001F0A6BE34
:1022E0005F2001F007BF01F0A9BE02F027FAA64265
:1022F00002D1602001F0FEBE3078432802D04E2883
:1023000002D003E0761CBDE7761CCAE701F096BE5A
:10231000A64202D1612001F0EDBE03200190DFF85A
:102320004C0B009023003200390002A8FDF794FF07
:10233000039806009DF80800002807D002280DD059
:1023400009D30DE088FB040878070508761C1020E7
:10235000050001F06BBE612001F0CCBE01F06EBE45
:1023600002F0ECF9A64202D1622001F0C3BE0620C1
:102370000190DFF8FC0A009023003200390002A827
:10238000FDF76AFF039806009DF80800002803D0B7
:10239000022809D005D309E0761C1620050001F0BB
:1023A00045BE622001F0A6BE01F048BE02F0C6F9AB
:1023B000A64202D1632001F09DBE04200190DFF807
:1023C000B40B009023003200390002A8FDF744FF4F
:1023D000039806009DF8080000280BD0022811D0B1
:1023E0000DD311E0A94500089EA3020838FB04089C
:1023F00078000508761C0520050001F017BE632053
:1024000001F078BE01F01ABE02F098F9A64202D19E
:10241000642001F06FBE3078592804D1761C082062
:10242000050001F003BE01F009BEA64202D16520FD
:1024300001F060BE30784E2802D0502802D003E070
:10244000761CB5E7761CE1E701F0F8BDA64202D1A3
:10245000662001F04FBE3078482802D04F2802D0C5
:1024600003E0761C7EE7761CDFE701F0E7BDA642BD
:1024700002D1672001F03EBE03200190DFF8D40BAB
:10248000009023003200390002A8FDF7E5FE039812
:1024900006009DF80800002803D0022809D005D3C3
:1024A00009E0761C0020050001F0C0BD672001F0A6
:1024B00021BE01F0C3BD02F041F9A64202D168205D
:1024C00001F018BE05200190DFF88C0B009023006E
:1024D0003200390002A8FDF7BFFE039806009DF800
:1024E0000800002808D002280ED00AD30EE000BF52
:1024F000E4F2040880C30408761C2320050001F0E0
:1025000095BD682001F0F6BD01F098BD02F016F906
:10251000A64202D1692001F0EDBD30784C2802D0EE
:10252000532802D003E0761CA1E7761CC5E701F032
:1025300085BDA64202D16A2001F0DCBD3078452875
:1025400001D1761CE4E701F079BDA64202D16B20EF
:1025500001F0D0BD04200190DFF8C40B00902300EF
:102560003200390002A8FDF777FE039806009DF8B7
:102570000800002803D0022809D005D309E0761C02
:102580002D20050001F052BD6B2001F0B3BD01F01C
:1025900055BD02F0D3F8A64202D16C2001F0AABDCD
:1025A00009200190DFF87C0B0090230032003900F5
:1025B00002A8FDF751FE039806009DF808000028C8
:1025C00008D002280ED00AD30EE000BFFCF20408A7
:1025D00048FB0408761C2920050001F027BD6C206B
:1025E00001F088BD01F02ABD02F0A8F8A64202D190
:1025F0006D2001F07FBD30785F2801D1761CCAE7DD
:102600000120050001F012BDA64202D16E2001F0AA
:1026100071BD02200190DFF8CC0B00902300320046
:10262000390002A8FDF718FE039806009DF808007F
:10263000002803D0022806D002D306E0761CD5E796
:102640006E2001F057BD01F0F9BC02F077F8A64208
:1026500002D16F2001F04EBD03200190DFF8880BFE
:10266000009023003200390002A8FDF7F5FD039821
:1026700006009DF80800002803D0022809D005D3E1
:1026800009E0761C0220050001F0D0BC6F2001F0AB
:1026900031BD01F0D3BC02F051F8A64202D1702046
:1026A00001F028BD02200190DFF8400B00902300CC
:1026B0003200390002A8FDF7CFFD039806009DF80F
:1026C0000800002808D002280ED00AD30EE000BF70
:1026D00014F3040850090508761C1F20050001F0BA
:1026E000A5BC702001F006BD01F0A8BC02F026F8E0
:1026F000A64202D1712001F0FDBC02200190DFF85A
:10270000AC0B009023003200390002A8FDF7A4FDB5
:10271000039806009DF80800002803D0022809D07D
:1027200005D309E0761C0920050001F07FBC71206B
:1027300001F0E0BC01F082BC02F000F8A64202D138
:10274000722001F0D7BC3078492802D04F2802D03F
:1027500003E0761CA1E7761CCAE701F06FBCA64235
:1027600002D1732001F0C6BC06200190DFF8400BB7
:10277000009023003200390002A8FDF76DFD039898
:1027800006009DF80800002803D0022809D005D3D0
:1027900009E0761C1820050001F048BC732001F008
:1027A000A9BC01F04BBC01F0C9FFA64202D17420C4
:1027B00001F0A0BC03200190DFF8F80A009023008C
:1027C0003200390002A8FDF747FD039806009DF886
:1027D0000800002808D002280ED00AD30EE000BF5F
:1027E0005409050858090508761C1720050001F052
:1027F0001DBC742001F07EBC01F020BC01F09EFFE6
:10280000A64202D1752001F075BC07200190DFF8C7
:10281000A80A009023003200390002A8FDF71CFD31
:10282000039806009DF80800002803D0022809D06C
:1028300005D309E0761C1520050001F0F7BB7520D3
:1028400001F058BC01F0FABB01F078FFA64202D1BA
:10285000762001F04FBC06200190DFF8600A00905E
:1028600023003200390002A8FDF7F6FC03980600A9
:102870009DF80800002803D0022809D005D309E0FC
:10288000761C1E20050001F0D1BB762001F032BC81
:1028900001F0D4BB01F052FFA64202D1772001F033
:1028A00029BC30784C2804D1761C0A20050001F0A0
:1028B000BDBB01F0C3BBA64202D1782001F01ABC17
:1028C0003078412802D04F2802D003E0761CBDE7C3
:1028D000761CE1E701F0B2BBA64202D1792001F0FB
:1028E00009BC3078412802D0432802D003E0761C8E
:1028F00086E7761CDFE701F0A1BBA64202D17A2071
:1029000001F0F8BB02200190DFF8940B0090230047
:102910003200390002A8FDF79FFC039806009DF8DD
:102920000800002808D002280ED00AD30EE000BF0D
:1029300084040020ECC30408761C0B20050001F081
:1029400075BB7A2001F0D6BB01F078BB01F0F6FE32
:10295000A64202D17B2001F0CDBB30782D2806D0D5
:10296000452806D04B2806D04F2806D007E0761C15
:10297000F5E6761C19E7761CAEE7761CBDE701F09C
:102980005DBBA64202D17C2001F0B4BB05200190C2
:10299000DFF8100B009023003200390002A8FDF789
:1029A0005BFC039806009DF80800002803D002286D
:1029B00009D005D309E0761C1920050001F036BBCB
:1029C0007C2001F097BB01F039BB01F0B7FEA642B5
:1029D00002D17D2001F08EBB06200190DFF8C80AED
:1029E000009023003200390002A8FDF735FC03985F
:1029F00006009DF80800002808D002280ED00AD34F
:102A00000EE000BF8405002008E80408761C0620BC
:102A1000050001F00BBB7D2001F06CBB01F00EBB8B
:102A200001F08CFEA64202D17E2001F063BB0220A1
:102A30000190DFF8780A009023003200390002A8E4
:102A4000FDF70AFC039806009DF80800002803D053
:102A5000022809D005D309E0761C1C20050001F0EE
:102A6000E5BA7E2001F046BB01F0E8BA01F066FE4F
:102A7000A64202D17F2001F03DBB02200190DFF889
:102A8000A40B009023003200390002A8FDF7E4FBFC
:102A9000039806009DF80800002803D0022809D0FA
:102AA00005D309E0761C2720050001F0BFBA7F207E
:102AB00001F020BB01F0C2BA01F040FEA64202D1F3
:102AC000802001F017BB3078542802D0552802D05E
:102AD00003E0761CA6E7761CCAE701F0AFBAA6426F
:102AE00002D1812001F006BB02200190DFF8380BF3
:102AF000009023003200390002A8FDF7ADFB0398D7
:102B000006009DF8080000280AD0022810D00CD337
:102B100010E000BF24E80408840600208407002099
:102B2000761C2620050001F081BA812001F0E2BA6E
:102B300001F084BA01F002FEA64202D1822001F027
:102B4000D9BA02200190DFF8B80B009023003200C0
:102B5000390002A8FDF780FB039806009DF80800E5
:102B6000002803D0022809D005D309E0761C0320F1
:102B7000050001F05BBA822001F0BCBA01F05EBA38
:102B800001F0DCFDA64202D1832001F0B3BA03209C
:102B90000190DFF8700B009023003200390002A88A
:102BA000FDF75AFB039806009DF80800002803D0A3
:102BB000022809D005D309E0761C0C20050001F09D
:102BC00035BA832001F096BA01F038BA01F0B6FDAB
:102BD000A64202D1842001F08DBA04200190DFF8D2
:102BE000B40B009023003200390002A8FDF734FB3B
:102BF000039806009DF8080000280BD0022811D089
:102C00000DD311E068FB0408BCE10408840800202F
:102C100084090020761C0D20050001F007BA8420ED
:102C200001F068BA01F00ABA01F088FDA64202D1AB
:102C3000852001F05FBA3078462802D0502802D0B3
:102C400003E0761C9EE7761CC2E701F0F7B9A642C6
:102C500002D1862001F04EBA3078502801D1761C7E
:102C6000E4E701F0EBB9A64202D1872001F042BAB5
:102C70003078492802D04F2805D006E0761C222063
:102C8000050001F0D3B9761CE1E701F0D7B9A642FF
:102C900002D1882001F02EBA02200190DFF8F80A54
:102CA000009023003200390002A8FDF7D5FA0398FE
:102CB00006009DF80800002803D0022809D005D39B
:102CC00009E0761C1D20050001F0B0B9882001F054
:102CD00011BA01F0B3B901F031FDA64202D1892049
:102CE00001F008BA3078522802D0542802D006E009
:102CF000761CCCE7761C0420050001F097B901F0A2
:102D00009DB9A64202D18A2001F0F4B93078412859
:102D100008D04C2808D04F2808D0522808D0552871
:102D200008D009E0761CC9E6761CD8E6761C03E7D5
:102D3000761C98E7761CD0E701F080B9A64202D154
:102D40008B2001F0D7B903200190DFF89C0B009095
:102D500023003200390002A8FDF77EFA039806002E
:102D60009DF8080000280BD0022811D00DD311E0E7
:102D7000DCE10408840A0020FCE10408E7440008C0
:102D8000761C1120050001F051B98B2001F0B2B979
:102D900001F054B901F0D2FCA64202D18C2001F01E
:102DA000A9B903200190DFF8DC0B0090230032006A
:102DB000390002A8FDF750FA039806009DF80800B4
:102DC000002803D0022809D005D309E0761C2C2066
:102DD000050001F02BB98C2001F08CB901F02EB95F
:102DE00001F0ACFCA64202D18D2001F083B9052090
:102DF0000190DFF8D00B009023003200390002A8C8
:102E0000FDF72AFA039806009DF80800002803D071
:102E1000022809D005D309E0761C2B20050001F01B
:102E200005B98D2001F066B901F008B901F086FC02
:102E3000A64202D18E2001F05DB903200190DFF897
:102E4000EC0B009023003200390002A8FDF704FAD1
:102E5000039806009DF8080000280BD0022811D026
:102E60000DD311E040E80408800705085C09050857
:102E700088070508761C1420050001F0D7B88E20BD
:102E800001F038B901F0DAB801F058FCA64202D1DD
:102E90008F2001F02FB93078422806D0432806D081
:102EA000442806D0502806D007E0761C46E7761C5A
:102EB00072E7761C96E7761CBAE701F0BFB8A64227
:102EC00002D1902001F016B93078452801D1761C46
:102ED000DCE701F0B3B8A64202D1912001F00AB9B3
:102EE00003200190DFF8D40B00902300320039005A
:102EF00002A8FDF7B1F9039806009DF80800002824
:102F000003D0022809D005D309E0761C0E20050065
:102F100001F08CB8912001F0EDB801F08FB801F00C
:102F20000DFCA64202D1922001F0E4B8307850287E
:102F300004D1761C2520050001F078B801F07EB898
:102F4000A64202D1932001F0D5B809200190DFF804
:102F5000700B009023003200390002A8FDF77CF9C5
:102F6000039806009DF80800002805D002280BD021
:102F700007D30BE060090508761C2A20050001F044
:102F800055B8932001F0B6B801F058B801F0D6FB5F
:102F9000A64202D1942001F0ADB83078552802D075
:102FA0005F2802D003E0761CBBE7761CC8E701F07F
:102FB00045B8A64202D1952001F09CB8307841284E
:102FC00002D0542802D003E0761C84E7761CDFE7A9
:102FD00001F034B8A64202D1962001F08BB804204B
:102FE0000190DFF8E00A009023003200390002A8C7
:102FF000FDF732F9039806009DF80800002803D079
:10300000022809D005D309E0761C2120050001F033
:103010000DB8962001F06EB801F010B801F08EFBEB
:10302000A64202D1972001F065B807200190DFF891
:10303000040C009023003200390002A8FDF70CF9BF
:10304000039806009DF80800002807D002280DD03C
:1030500009D30DE06409050890070508761C1A20BD
:10306000050000F0E3BF972001F044B800F0E6BF90
:1030700001F064FBA64202D1982001F03BB8307801
:10308000452804D04F2804D0552804D005E0761CEC
:103090008FE7761C9EE7761CC2E700F0CFBFA64202
:1030A00002D1992001F026B806200190DFF8880BA4
:1030B000009023003200390002A8FDF7CDF80398F4
:1030C00006009DF80800002803D0022809D005D387
:1030D00009E0761C2820050000F0A8BF992001F027
:1030E00009B800F0ABBF01F029FBA64202D19A203B
:1030F00001F000B803200190DFF8400B009023009E
:103100003200390002A8FDF7A7F8039806009DF8E1
:103110000800002808D002280ED00AD30EE000BF15
:103120006809050884000508761C0720050000F0E2
:103130007DBF9A2000F0DEBF00F080BF01F0FEFAF4
:10314000A64202D19B2000F0D5BF3078452802D09E
:10315000522802D003E0761CA1E7761CC5E700F0F8
:103160006DBFA64202D19C2000F0C4BF0320019095
:10317000DFF8CC0A009023003200390002A8FDF7E6
:103180006BF8039806009DF80800002803D0022879
:1031900009D005D309E0761C1220050000F046BFD7
:1031A0009C2000F0A7BF00F049BF01F0C7FAA6427B
:1031B00002D19D2000F09EBF02200190DFF8300C6C
:1031C000009023003200390002A8FDF745F803986B
:1031D00006009DF8080000280AD0022810D00CD361
:1031E00010E000BFA6A302086C0905084EAB020858
:1031F000761C2020050000F019BF9D2000F07ABF4A
:1032000000F01CBF01F09AFAA64202D19E2000F005
:1032100071BF02200190DFF8DC0B00902300320028
:10322000390002A8FDF718F8039806009DF8080079
:10323000002803D0022809D005D309E0761C0F200E
:10324000050000F0F3BE9E2000F054BF00F0F6BE73
:1032500001F074FAA64202D19F2000F04BBF3078F3
:10326000492802D04F2802D003E0761C9FE7761C45
:10327000CAE700F0E3BEA64202D1A02000F03ABFA8
:1032800008200190DFF86C0C009023003200390018
:1032900002A8FCF7E1FF039806009DF8080000284B
:1032A0000ED0022814D010D314E000BF82AB020865
:1032B0009807050870090508A0070508A80705086C
:1032C000761C1B20050000F0B1BEA02000F012BF4C
:1032D00000F0B4BE01F032FAA64202D1A12000F003
:1032E00009BF3078422804D04C2804D0532804D099
:1032F00005E0761C35E7761CACE7761CBBE700F0F2
:103300009DBEA64202D1A22000F0F4BE30784E2825
:1033100001D1761CE0E700F091BEA64202D1A320C5
:1033200000F0E8BE307841281ED042281FD0432844
:1033300020D0442821D0462822D0472823D048280E
:1033400024D04C2825D04D2826D04E2827D04F28D1
:1033500028D0502829D0522829D0532829D05428A1
:1033600029D0552829D02AE0761CFEF7C0BF761C4C
:10337000FEF7CEBF761CFFF769B8761CFFF7D9B809
:10338000761CFFF7E2B8761CFFF73EB9761CFFF714
:103390005EB9761CFFF7D2B9761CFFF7D9BA761C56
:1033A000FFF7EFBA761CFFF712BB761CA9E4761C78
:1033B00085E5761C5EE6761CC2E6761CA1E700F089
:1033C0003DBE22003100380001F0DEF8FEF743BABE
:1033D000A64202D1A52000F08DBE761CF1E7A642E0
:1033E00002D1A62000F086BE30780A2802D00D282F
:1033F0000FD01DE0D7F804800020786032004146ED
:10340000380001F0A1F80100002940F0338600F0F7
:1034100038BED7F80480002078603200414638007A
:1034200001F092F80100002940F02E8600F033BE32
:10343000761CD4E7A64202D1A72000F05BBE7E60D6
:10344000DFF8B80CB860CAE7A64202D1A82000F0A5
:1034500051BE30780A2802D00D2802D003E0761C35
:10346000AFE7761CB4E7E5E7A64202D1A92000F059
:1034700041BE30780A2804D00D2803D0202802D07D
:1034800003E0E1E7E0E7761CDEE70D20F860DFF817
:10349000700C38617E610020F861002000F02ABEC7
:1034A000C2C80208B0070508B8070508C2D102085B
:1034B000A64202D1AA2000F01DBE307830280FD0DD
:1034C00040D3322816D010D334281DD017D3362835
:1034D00024D01ED338282BD025D339282DD031E045
:1034E000761C0020050000F0B2BD761C012005000E
:1034F00000F0ADBD761C0220050000F0A8BD761CD2
:103500000320050000F0A3BD761C0420050000F098
:103510009EBD761C0520050000F099BD761C062096
:10352000050000F094BD761C0720050000F08FBD5B
:10353000761C0820050000F08ABD761C09200500D5
:1035400000F085BD90E7A64202D1AB2000F0D2BDCD
:103550003078202806D1761C220031003800FDF793
:103560004BF8A5E70920F860DFF8980B38617E6119
:103570000020F861002000F0BDBDA64202D1AC20C1
:1035800000F0B8BD307830280FD040D3322816D0A4
:1035900010D334281DD017D3362824D01ED3382872
:1035A0002BD025D339282DD031E0761C0020050002
:1035B00000F074BD761C0120050000F06FBD761C84
:1035C0000220050000F06ABD761C0320050000F013
:1035D00065BD761C0420050000F060BD761C05204A
:1035E000050000F05BBD761C0620050000F056BD0E
:1035F000761C0720050000F051BD761C0820050050
:1036000000F04CBD761C0920050000F047BD0920E4
:10361000F860DFF8F40A38617E610020F86100206C
:1036200000F068BD82D50208C2DC0208A64202D1C1
:10363000AD2000F05FBD30782E2801D1761C9CE7CC
:103640000920F860DFF8C40A38617E610020F86163
:10365000002000F04FBDA64202D1AE2000F04ABDCE
:10366000307830280FD040D3322816D010D33428E9
:103670001DD017D3362824D01ED338282BD025D3DD
:1036800039282DD031E0761C0020050000F00EBD59
:10369000761C0120050000F009BD761C0220050003
:1036A00000F004BD761C0320050000F0FFBC761C72
:1036B0000420050000F0FABC761C0520050000F08F
:1036C000F5BC761C0620050000F0F0BC761C072037
:1036D000050000F0EBBC761C0820050000F0E6BCFD
:1036E000761C0920050000F0E1BC0920F860DFF835
:1036F000200A38617E610020F861002000F0FABCE9
:10370000E24A030874090508A64202D1AF2000F07E
:10371000F1BC05200190DFF8FC0900902300320085
:10372000390002A8FCF798FD039806009DF80800F0
:10373000002803D0022806D002D30FE0761C8AE7C7
:10374000AF2000F0D7BC0820F860DFF8CC09386162
:103750007E610020F861002000F0CCBC00F0EEFF9C
:10376000A64202D1B02000F0C5BC02200190DFF8D3
:10377000AC09009023003200390002A8FCF76CFD70
:10378000039806009DF80800002807D0022818D0EA
:1037900014D318E0780905083A4E0308761C022075
:1037A00005002B00220031003800FCF78CFD2200C0
:1037B00031003800FCF74EFFFEF74ABDB02000F0A4
:1037C00099BC00F07BBC00F0B9FFA64202D1B12049
:1037D00000F090BC03200190DFF844090090230022
:1037E0003200390002A8FCF737FD039806009DF867
:1037F0000800002803D002280BD007D30BE0761C6A
:10380000220031003800FCF72BFF24E7B12000F044
:1038100071BC00F053BC00F091FFA64202D1B2206F
:1038200000F068BC3078452802D0542802D003E06C
:10383000761C95E7761CC8E700F040BCA64202D192
:10384000B32000F057BC3078482801D1761CE4E75B
:1038500000F034BCA64202D1B42000F04BBC30785A
:103860004828EBD0220031003800FCF7F3FE54E585
:10387000220031003800FCF723FD012802D0022885
:1038800001D001E049E53FE7E4E7A64202D1B620D6
:1038900000F030BC30780A2802D00D2802D003E0B6
:1038A000761CF2E7761CF0E7220031003800FCF7C6
:1038B00001FD22003100380000F005FE002800F074
:1038C0000684152800F0058400F00CBC00F036FFDB
:1038D0000720F860DFF84C0838617E610020F8614D
:1038E000002000F007BC00BF7C0905082200310061
:1038F0003800FCF712FDC8E7F8E7FDF798B8FDF7C8
:10390000C7B81520F860DFF8200838617E6105200F
:10391000F8610020EEE31420F860DFF81008386149
:103920007E610020F8610020E4E3FDF79EB81520D9
:10393000F860DFF8FC0738617E610320F861002041
:10394000D8E31220F860DFF8EC0738617E610020D0
:10395000F8610020CEE3FDF7A4BA1520F860DFF887
:10396000C80738617E611020F8610020C2E314208E
:10397000F860DFF8B80738617E610020F861002048
:10398000B8E300BF80090508F9607E610720F8618F
:103990000020AFE3FDF7B0B8FDF7EAB81520F860F6
:1039A000DFF8940738617E610A20F8610020A1E306
:1039B0001320F860DFF8840738617E610020F86129
:1039C000002097E3C00705082B00220031003800D3
:1039D000FCF7CBFC012809D10C20F860DFF8600768
:1039E00038617E610020F861002083E3FDF70BB9A8
:1039F000F9607E610520F86100207BE3FDF748B89F
:103A0000FDF71CB81520F860DFF8240738617E61E7
:103A10000220F86100206DE31220F860DFF814073F
:103A200038617E610020F861002063E384090508A5
:103A3000FDF783BA220031003800FCF7FCFCFDF7EB
:103A40007CBA220031003800FCF7FCFC2200310077
:103A50003800FCF7F0FCFDF770BA1520F860DFF8CD
:103A6000E40638617E611520F861002042E31120F0
:103A7000F860DFF8D40638617E610020F86100202C
:103A800038E322003100380000F019FC2200310038
:103A9000380000F0E9FD0028CAD00128CAD0022869
:103AA000CFD01528D9D0E2E70420F860DFF89C06D3
:103AB00038617E610020F86100201BE38809050859
:103AC000900005088C090508DBE72200310038006A
:103AD000FCF73BFC0028F7D1E6E7D2E722003100F3
:103AE000380000F011FE00283FF409AF15283FF41C
:103AF00008AF10E7220031003800FCF71BFC01285A
:103B0000EBD1E2E7F9607E611720F8610020F1E275
:103B1000FDF75FBA220031003800FCF7AAFCFDF780
:103B20005FBA220031003800FCF79CFCF2E722006B
:103B300031003800FCF7A3FCECE72200310038002C
:103B4000FCF7A4FCE6E7220031003800FCF7A5FCF6
:103B5000FDF746BAFDF744BA0B20F860DFF8F00530
:103B600038617E610020F8610020C3E2220031004C
:103B70003800FCF774FC0528D3D0EBD30728DCD041
:103B8000D5D30828DFD0E5E7220031003800FCF764
:103B900070FCFDF71EBA220031003800FCF762FC11
:103BA000F2E7220031003800FCF769FCECE7220064
:103BB00031003800FCF76AFCE6E7220031003800EB
:103BC000FCF76BFCFDF705BAFDF703BAD7F80480E4
:103BD0000020786032004146380000F015FD0100F9
:103BE000002905D0F9607E611C20F861002081E287
:103BF000FDF74FBAF960701C78611C20F861002055
:103C000078E2761CFDF745BAF960701C78611C20DB
:103C1000F86100206EE2761CFDF73BBAFDF74EBA64
:103C20000A20F860DFF82C0538617E610020F86119
:103C300000205FE2C8070508D007050890090508BD
:103C400094090508220031003800FCF712FCFDF74A
:103C50002FBB220031003800FCF704FCF2E7220001
:103C600031003800FCF70BFCECE722003100380093
:103C7000FCF70CFCE6E7220031003800FCF70DFCF5
:103C8000FDF716BBFDF714BBF9607E612520F861D6
:103C900000202FE2FDF732BB2B002200310038005C
:103CA000FCF725FC01280CD1D7F8048000207860AF
:103CB00032004146380000F0A7FC01000029E3D1A2
:103CC000E8E7FDF753BB220031003800FCF75EFC4B
:103CD000FDF712BAF9607E612620F861002009E242
:103CE000FDF717BBFDF742BB0420F860DFF868045E
:103CF00038617E610020F8610020FBE12200310084
:103D00003800FCF75BFCFDF7F7B922003100380002
:103D1000FCF7D5FBFDF799BBFDF7CABA22003100CD
:103D20003800FCF7DEFB0028DED1DBE722003100A3
:103D30003800FCF732FC220031003800FCF734FC7C
:103D4000FDF7A5BB220031003800FCF73DFCDCE7A5
:103D5000FDF77BBBF960701C78613020F8610020B2
:103D6000C8E1761CFDF7EABBF960701C7861302071
:103D7000F8610020BEE1761CFDF7E0BB2B002200BD
:103D800031003800FCF764FBFDF70EBC2200310067
:103D90003800FCF794FBFDF7F9BB22003100380036
:103DA000FCF7A1FA220031003800FCF7A2FA220049
:103DB0003100380000F0B8FBFDF74DBDF9607E61C1
:103DC0003E20F861002095E1FDF756BDF9607E6167
:103DD0003F20F86100208DE1FDF756BD0920F86015
:103DE000DE4838617E610020F861002082E100BF7A
:103DF0006A57030832620308FDF773BDFDF7B3BDD0
:103E00002B00220031003800FCF7EFFB22003100CC
:103E10003800FCF7E0FB2228F0D1EDE72B00220070
:103E200031003800FCF7DAFBFDF703BEFDF716BEE4
:103E3000FDF714BEFDF712BEFDF710BEFDF70EBE76
:103E4000FDF70CBEFDF70ABEFDF708BEFDF706BE86
:103E5000FDF704BEFDF702BEFDF700BEFDF7FEBD97
:103E6000FDF7FCBDFDF7FABDFDF7F8BDFDF7F6BDAA
:103E7000FDF7F4BDFDF7F2BDFDF7F0BDFDF7EEBDBA
:103E8000FDF7ECBDFDF7EABDFDF7E8BDFDF7E6BDCA
:103E9000FDF7E4BDFDF7E2BDFDF7E0BDFDF7DEBDDA
:103EA000FDF7DCBDFDF7DABDFDF7D8BDFDF7D6BDEA
:103EB000FDF7D4BDFDF7D2BD0820F860A8483861F1
:103EC0007E610020F861002014E10820F86092482B
:103ED00038617E610020F86100200BE1FDF7BEBD76
:103EE0000820F8609F4838617E610020F86100205A
:103EF00000E100BFD8070508FDF7B0BDFDF7AEBD76
:103F0000FDF7ACBDFDF7AABDFDF7A8BDFDF7A6BD49
:103F1000FDF7A4BDFDF7A2BDFDF7A0BDFDF79EBD59
:103F2000FDF79CBDFDF79ABDFDF798BDFDF796BD69
:103F30000820F8608C4838617E610020F86100201C
:103F4000D8E0F9607E614A20F8610020D2E0FDF7F8
:103F5000FFBEF9607E613E20F8610020CAE0FDF7F7
:103F60008BBCF9607E613F20F8610020C2E0FDF764
:103F70008BBCF9607E614A20F8610020BAE0FDF751
:103F8000E7BEF9607E613E20F8610020B2E0FDF7F7
:103F900073BCF9607E613F20F8610020AAE0FDF764
:103FA00073BCF9607E614A20F8610020A2E0FDF751
:103FB000CFBEF9607E613E20F86100209AE0FDF7F7
:103FC0005BBCF9607E613F20F861002092E0FDF764
:103FD0005BBCF9607E614A20F86100208AE0FDF751
:103FE000B7BEF9607E613E20F861002082E0FDF7F7
:103FF00043BCF9607E613F20F86100207AE0FDF764
:1040000043BCF9607E614A20F861002072E0FDF750
:104010009FBE0720F860554838617E610020F86136
:10402000002067E0FEF7ECB8FEF7F4B82B002200A2
:1040300031003800FCF747F9FEF70AB90620F860AE
:104040004B4838617E610020F861002052E02B006F
:10405000220031003800FCF7D4FA012808D10D20E5
:10406000F860444838617E610020F861002041E03A
:10407000FFF71EBAF960701C7861A420F861002077
:1040800038E0761CFFF79DB9F960701C7861A520B7
:10409000F86100202EE0761CFFF79AB92B00220071
:1040A00031003800FCF7A1FAFFF74DBA2B002200CF
:1040B00031003800FCF792FAFFF7B8BA0820F86030
:1040C0002D4838617E610020F861002012E0FFF782
:1040D000CFBB1520F860294838617E61B520F861B2
:1040E000002007E01020F860254838617E6100203C
:1040F000F861002005B0BDE8F08F00BF4945000819
:104100002CF304081CE20408FCF2040848FB040831
:1041100014F30408E007050858FB0408C267030805
:10412000980905087CE7040884F2040838C30408E9
:1041300098E70408FCB804089CF204085CC304086F
:1041400040F704089CE1040854F704086891040847
:10415000B4F20408B4E70408D0E70408ECE7040864
:10416000A4C3040860B10408C8C30408DCE104085F
:104170005CE8040868F7040878E8040844F30408D5
:1041800010C40408F8B506000C001500F0680028FB
:1041900001D0F06820E07068002800D074602A0028
:1041A00021003000FCF770FA07003800C0B2002888
:1041B00001D1F06810E03800C0B2F06170680028EA
:1041C00009D02A0071683000B3689847002802D0EF
:1041D000F060756100E00020F2BDF0B402461068A6
:1041E00095681318506803EB5004C00748BF4D444E
:1041F000A3422DD013F8016B16F0030004BF13F88F
:10420000010BC01C31090F2907D113F8011B0F3115
:1042100003E013F8017B05F8017B401EF9D100296A
:10422000E6D013F8010BC6F38107032F08BF13F87C
:10423000017B00EB0720404228440026B71E8F4236
:104240001EBF10F8017B05F8017B761CF6D1CFE785
:10425000F0BC02F10C00704762F30F2262F31F42C0
:10426000401810F0030308D0C91A1FD3DB0748BF5A
:1042700000F8012D28BF20F8022D130030B4144699
:104280001546103928BF20E93C00FAD8490728BF55
:1042900020E90C0048BF40F8042D890028BF20F811
:1042A000022D48BF00F8012D30BC7047C91818BF57
:1042B00000F8012DCB0728BF00F8012D704703003F
:1042C00093F8300010F0140014280CD193F8280053
:1042D000012802D0588E652801D1012000E000207D
:1042E00083F82E0008E093F82900052801D1012069
:1042F00000E0002083F82E0000207047F8B507008A
:104300000D00160097F83000000705D4D7E9080122
:10431000002901D1002801D0012400E0002497F8F1
:104320002E0000280BD097F82900052805D097F813
:104330003000400601D4002C01D1012030E097F874
:104340003000400601D500202AE097F83000000731
:1043500001D5022024E0388E80050BD597F828007F
:10436000012805D197F82D00800701D4052017E01A
:10437000042015E097F83000800608D4380000F0DB
:104380001DF8002801D100200AE0042008E0D7E948
:104390000801002903D1002801D1002000E00320FA
:1043A000F2BD70B504000D001600200000F031F8D9
:1043B000002184F82F100021218670BD010091F8A2
:1043C0002800012801D1002022E04A8E642092FBBF
:1043D000F0F001280AD0488ECC2807D0488EB0F5DE
:1043E000987F03D091F83000400601D500200FE0FF
:1043F000088E10F40270B0F5007F01D1012007E0B3
:1044000091F8300010F0280F01D0002000E00120CA
:10441000704710B5040094F82A00002809D094F8D9
:104420002B00002805D094F83000800707D5002025
:104430000EE094F83000C00701D4002008E020000E
:10444000FFF7BCFF002801D1012000E00020C0B22E
:1044500010BD8268521C8260426832B103685A1CE7
:10446000026019704168491E4160704770B50600CE
:104470000C0015003000FCF7F9F886F82840756349
:1044800070BD70B506000C00150004EB050221009C
:104490003000FFF777FEC0B270BDF8B507003824D2
:1044A00000253E002A0021003000FFF7D5FEF1BDB7
:1044B000C168162901D10021C1607047C068C0B22F
:1044C000704701617047F8B505000E0017006C6B6E
:1044D000002C02D02068002801D1002002E0280032
:1044E00021688847F2BD2DE9F04105000E00170054
:1044F0006C6B002C02D06068002802D15FF00008CD
:104500000FE0BA1B3100280063689847804618F115
:10451000010F06D118208046DFF80C122800FFF7A3
:10452000D0FF4046BDE8F081F8B505000E00170049
:104530006C6B002C02D0A06A002801D1002002E0A0
:104540002800A16A8847F2BD2DE9F04105000E0060
:1045500017006C6B002C02D0A068002802D15FF01D
:1045600000080EE0BA1B31002800A3689847804677
:1045700018F1010F05D1182080466C492800FFF77B
:10458000A0FF4046BDE8F081F8B505000E00170019
:104590006C6B002C02D0E06A002801D1002002E000
:1045A0002800E16A8847F2BD2DE9F04105000E00C0
:1045B00017006C6B002C02D0E068002802D15FF07D
:1045C00000080EE0BA1B31002800E36898478046D7
:1045D00018F1010F05D11820804655492800FFF732
:1045E00070FF4046BDE8F081F8B505000E001700E9
:1045F0006C6B002C02D0206B002801D1002002E05F
:104600002800216B8847F2BD2DE9F04105000E001E
:1046100017006C6B002C02D02069002802D15FF0DB
:1046200000080EE0BA1B3100280023699847804635
:1046300018F1010F05D1182080463E492800FFF7E8
:1046400040FF4046BDE8F081F8B505000E001700B8
:104650006C6B002C02D0606B002801D1002002E0BE
:104660002800616B8847F2BDF8B505000E00170001
:104670006C6B002C02D06069002801D1002002E0A0
:10468000280061698847F2BDF8B505000E001700E3
:104690006C6B002C02D0E069002801D1002002E000
:1046A0002800E1698847F2BD2DE9F04105000E00C0
:1046B00017006C6B002C02D0A069002802D15FF0BB
:1046C00000080EE0BA1B31002800A3699847804615
:1046D00018F1010F05D11820804617492800FFF76F
:1046E000F0FE4046BDE8F081F8B505000E00170069
:1046F0006C6B002C02D0206A002801D1002002E05F
:104700002800216A8847F2BDF8B505000E001700A1
:104710006C6B002C02D0606A002801D1002002E0FE
:104720002800616A8847F2BD3CCA040884C20408B4
:10473000BCB70408E4B704085CCA0408012000F010
:1047400001B8000180B500F007F8024A11001820F6
:10475000ABBEFBE72600020010B500F013F8020024
:1047600000230024E4431068A04203D0110002207B
:10477000ABBE13605068A04203D0111D0220ABBE37
:10478000536010BD00487047B00C002001000800C5
:1047900080B2000A50EA012080B27047010000296F
:1047A00001D1002003E04868000B10F00F007047B3
:1047B0000100002901D1002003E04868C0F3032074
:1047C000800170470100002901D1002003E0486802
:1047D000C00810F01C0070470100002901D1002022
:1047E00002E0087910F01F007047010008680028F7
:1047F00001D1002004E008684068000B10F00F00B1
:10480000704701008A7A521E032A04D9921F02D0EF
:10481000921E012A01D8012000E000207047406864
:104820001B2801DB012000E00020C0B2704707B563
:10483000684603F0C3F9801E022801D8019800E001
:1048400000200EBD10B5040094E80700FFF7EFFF4D
:104850000078C0B210BD10B50400200000F014FEB6
:1048600000F24D1010BD10B50400200000F0E4FD72
:1048700000F24D1010BD814202D3081A904201D2BD
:10488000012000E00020C0B2704710B504000122F2
:104890000121200004F014F810BD0300186CD0F8BA
:1048A000480100280DD0186CD0F84C01002808D021
:1048B000186CD0F848010860186CD0F84C011060F2
:1048C00019E01868D0F8840000280DD01868D0F8D6
:1048D0008800002808D01868D0F88400086018689C
:1048E000D0F88800106006E000200860002010600A
:1048F000DFF8780800E000207047016C002908D03C
:10490000016CD1F85411002903D0016CD1F8541175
:1049100001E00168896D002901D1002000E00868EC
:10492000704701000420704740F20331B0F90220C3
:104930008A4205D1B0F90000884201D1012000E08F
:104940000020C0B27047016C002906D0016C896C50
:10495000002902D0006C806C01E00068006F704795
:10496000016C00290AD0016C897A012906D1016CF9
:10497000C96C002902D0006CC06C01E00068806E38
:10498000704738B504000D002000FFF7E9FF010073
:10499000002901D100200CE00888002808D00A88EE
:1049A000280080B2824201D1012002E0891CF3E795
:1049B000002032BD01000A0092B2120A0B00100062
:1049C000C0B2012809D00ED3032808D006D3052889
:1049D00007D005D3062805D005E006E005E004E091
:1049E00003E002E001E000200BE01800C0B2012863
:1049F00002D0032801D001E002E001E0002000E045
:104A00000120704738B504000D00B4F9101040F2D1
:104A10000330814204D1280080B2FFF7CBFF00E0D1
:104A2000002032BD0100002906D002290AD006D399
:104A300004290DD009D30EE04FF480400DE04FF46F
:104A400000700AE04FF4806007E04FF4006004E07B
:104A50004FF4805001E04FF4804070472DE9F0475B
:104A600005000E0017003100012004F0FBFD0400DA
:104A7000002C02D15FF0FF3015E03868864201D289
:104A8000B24601E0D7F800A0D5F80080A146524612
:104A90004146484604F002FE3968286804F0D8FE12
:104AA0002C603E600020BDE8F0872DE9F24F82B017
:104AB000834615001E000024002001900020009075
:104AC00000275FF000085FF000095FF0000ADBF8E4
:104AD0006000002834D0DBF87410DBF86000091A9D
:104AE0000191DBF87010DBF86000091A0091DBF827
:104AF0006C10DBF86000091A0F00029800280BD038
:104B0000DBF88800854205D2DBF88400A84201D298
:104B1000012008E0002006E0DBF88800A84201D26E
:104B2000012000E0002000280AD01BF188022900A3
:104B30001BF16000FFF792FF002801D10120040063
:104B4000DBF8A000002834D0DBF8B410DBF8A000BC
:104B5000091A8846DBF8B010DBF8A000091A89466C
:104B6000DBF8AC10DBF8A000091A8A46029800288E
:104B70000BD0DBF8C400864205D2DBF8C000B0429F
:104B800001D2012008E0002006E0DBF8C400B042BA
:104B900001D2012000E0002000280AD01BF1C4024D
:104BA00031001BF1A000FFF759FF002801D10120BF
:104BB0000400002C22D0584604F0F1FADBF8A000E3
:104BC0004044CBF8B400DBF8A0005044CBF8AC0074
:104BD000DBF8A0004844CBF8B000DBF86010019887
:104BE0000844CBF87400DBF860003844CBF86C0064
:104BF000DBF8601000980844CBF87000BDE8F78F30
:104C000010B50400E06D002807D0E06D06F015FD3A
:104C1000E06D04F030FD0020E06510BD4A7A0A2AFC
:104C200004D10FF24513026C136108E04A7A0A2A94
:104C300004D00FF21D13026C136100E0FFE7704710
:104C40007CB504000D00160028008DF8000030002F
:104C5000000C8DF801003000000A8DF802003000D1
:104C60008DF80300042269462000236C1B699847D5
:104C700076BD70B506007FF06D04306C10F5D47011
:104C800006F05BFD306C10F5D47006F04BFD09208A
:104C900006F010FD01000022306C10F5D47006F013
:104CA000E4FD0500002D01D028002DE0306C10F54A
:104CB000D47006F07CFE0400002C01D0200023E01C
:104CC000306C10F5DA7006F038FD306C10F5DA70E3
:104CD00006F028FD0A2006F0EDFC00220100306CF1
:104CE00010F5DA7006F0C1FD0500002D01D0280096
:104CF0000AE0306C10F5DA7006F059FE0100002968
:104D000001D0080000E0002070BD2DE9F041050051
:104D10000E0017007FF06D083A003100286C10F586
:104D2000D47006F098FE0400002C01D020000CE0A6
:104D30003A003100286C10F5DA7006F08CFE0100A4
:104D4000002901D0080000E00020BDE8F08100004B
:104D500070B504000D00160032002900206C10F51B
:104D6000D47006F078FE70BD70B504000D0016001A
:104D700032002900206C10F5DA7006F06CFE70BD70
:104D8000F8B504004FF49065002627003200290092
:104D90003800FFF761FA14F5D47006F0C3FC14F57F
:104DA000DA7006F0BFFCDFF88C06206114F15000C9
:104DB00007F0BAF814F1A00007F07BFC0320A07004
:104DC000F1BDF8B507004FF48E7400253E002A00AF
:104DD00021003000FFF740FA17F1540007F094FF6C
:104DE00017F1980007F090FF17F1340006F09AFCD5
:104DF00017F1400006F096FCF1BDF8B507007424E9
:104E000000253E002A0021003000FFF725FAF1BD01
:104E10002DE9F04706007FF06D05306D002802D0C7
:104E2000306D04F09DFBF06B002802D0F06B00F0B9
:104E30008FFC306C002802D0300000F03DFC306D5B
:104E4000002805D14FF48E71012004F00BFC306571
:104E5000F06B002804D17421012004F003FCF063FE
:104E6000306C002805D14FF49061012004F0FAFB6A
:104E7000306444F24D12130000213000FFF715FE9C
:104E8000306C002805D0306D002802D0F06B00286F
:104E900011D1306C04F0EFFB00203064306D04F071
:104EA000EAFB00203065F06B04F0E5FB0020F063C6
:104EB000DFF89803B6E0F06BFFF79FFF306CFFF769
:104EC0005FFF306DFFF77DFF3000FFF7D2FE04007B
:104ED000002C01D02000A5E03068C06E002836D03C
:104EE0003068C76E5FF0000817F80800002802D08D
:104EF00018F10108F8E7022118F1010004F0B2FBF3
:104F00000500002D02D1DFF844038BE05FF00009BB
:104F1000C14513D217F8090000F013FE824650462F
:104F200080B2002805D1280004F0A5FBDFF8BC05FD
:104F300078E025F819A019F10109E9E7002025F822
:104F40001800306C85640121306C417206E03068D5
:104F5000016F306C81640020316C48723068FFF75B
:104F6000E3FC00285AD03068406E002856D03068E4
:104F7000456E0027AA46DAF80000002811D0DAF8BA
:104F8000000000F075FD002808D0BF1CBF1C4FF6C4
:104F9000FF70874202D3DFF8540543E01AF1040A98
:104FA000E9E7022F02D2DFF844053BE0B91C0120FB
:104FB00004F058FB316CC864306CC06C002802D11E
:104FC000DFF888022EE0306CD0F84C90A846D8F874
:104FD000000000281BD0D8F8000000F049FD0100B7
:104FE000C9B2002910D00100C9B2090251F0030171
:104FF000A9F8001019F102020100C9B2090251F02A
:105000000101118012F1020918F10408DFE7002004
:10501000A9F800000121306C817202E00021306C9F
:1050200081720020BDE8F087F8B507004FF4827464
:1050300000253E002A0021003000FFF70DF9F1BDE8
:1050400038B505002C682000FFF76EFC002801D061
:10505000002001E0DFF8940432BD10B50400200008
:10506000FFF7EEFF0100002901D0080000E000205A
:1050700010BD2DE9F84380460C007FF06D0944F225
:105080004D163500C8F800404046FFF7E6FF070020
:10509000002801D0380066E0D8F800000088A8F8A1
:1050A00010000020C8F8A000C8F88850290001208E
:1050B00004F0D8FAC8F86000D8F86000002802D1DF
:1050C000DFF8889119E0C8F8C4603100012004F0CD
:1050D000C9FAC8F8A000D8F8A000002802D1DFF86B
:1050E0006C910AE0404604F05AF84046FFF790FE03
:1050F0008146002801D1002035E0D8F8600004F096
:10510000BAFAD8F8A00004F0B6FA0020C8F80000F7
:105110000020C8F888000020C8F8C4000020C8F8A3
:1051200060000020C8F8A0000020C8F86800002037
:10513000C8F864000020C8F86C000020C8F87000AF
:105140000020C8F874000020C8F8A8000020C8F8A3
:10515000A4000020C8F8AC000020C8F8B00000206F
:10516000C8F8B4004846BDE8F2830000008AFFFF9B
:10517000017170474171704781717047C16102626E
:10518000704710B4019CC16202624362846210BC29
:1051900070474165704770B505002C00002C06D0A3
:1051A000A0680600200004F066FA3400F6E770BD3F
:1051B00070B505000C001600002C06D12868FFF71A
:1051C000EAFF00202860002019E00C21012004F0F3
:1051D00049FA0100002901D11C4810E00C604E6022
:1051E000002088602868002801D1296006E02A682C
:1051F0009068002801D09268FAE79160002070BDA5
:1052000070B506000C0015002A00210016F15800A8
:10521000FFF7CEFF70BDC165026670470100D1F88F
:105220008C00002803D0D1F89000002801D1002084
:105230000AE0D1F88400002805D0D1F888000028C1
:1052400001D0012000E00020704700000081FFFF36
:1052500001000800C0B2022801D101200EE00800C0
:10526000C0B2062807D00800C0B2082803D0080042
:10527000C0B20B2801D1032000E0002070470200DB
:10528000012905D11000C0B2012801D1022001E09E
:105290001000C0B27047F8B5070017F15400FFF7CF
:1052A000A4FAC0B2FFF7D4FF04000025FE6C310061
:1052B0002000C0B2FFF7E3FFF2BDF8B507000D0014
:1052C0000026287A07F0EBFC0400002C06D0200012
:1052D000FFF764FAC0B2FFF7BBFF060039003000E9
:1052E000C0B2FFF7CCFFF2BD2DE9F04781460C00BC
:1052F00015001E00089F7FF06D0A19F1740008F078
:105300008DFD19F17C0008F089FD2A00210019F1BA
:10531000740008F04BFF8046002808D13A003100A5
:1053200019F17C0008F042FF8046002809D019F1ED
:10533000740008F073FD19F17C0008F06FFD404621
:1053400000E00020BDE8F0872DE9F84305000C00DF
:105350000026002C09D020000AF088FB0600B6F5D4
:10536000807F02D3DFF84C032DE0D5F8D000002871
:1053700008D0D5F8D0000AF079FB0100D5F8D000AC
:1053800004F066FA002C03D10020C5F8D00019E023
:10539000711C012004F066F9C5F8D000D5F8D000E2
:1053A000002802D1DFF8C8030DE03700A046D5F889
:1053B000D0903A004146484604F070F90021D5F8F3
:1053C000D00081550020BDE8F2832DE9F0418046F0
:1053D0000D0000262F003868002811D038680AF028
:1053E00045FB0400A619002C05D0B4F5807F02D23D
:1053F000B6F5803F02D3DFF8BC0204E03F1DEAE7C8
:10540000C8F894500020BDE8F08138B504000D00C4
:105410002800C0B2052807DA2800C0B2FFF702FB57
:1054200044F20101884202D3DFF8880201E02572CC
:10543000002032BD0B4D000870B505004FF48046CA
:1054400028680079002807D16868062804DB2868E6
:10545000007AFFF7E7FA16E0686B002807D0686B60
:105460000078FFF7DFFA0400B44200D22600E86BB0
:10547000002807D0E86B0078FFF7D4FA0400B442A4
:1054800000D22600300070BD38B504002068007AD4
:10549000FFF7C8FA0500606B00280AD0606B00783F
:1054A000FFF7C0FAA84204D2606B0078FFF7BAFA9F
:1054B0000500E06B00280AD0E06B0078FFF7B2FA35
:1054C000A84204D2E06B0078FFF7ACFA0500280090
:1054D00032BD38B504004FF480452000FFF7D4FFFB
:1054E0000100A94200D20D00280032BD80A1FFFFBB
:1054F00038B505007FF06D04280003F08EF9010037
:1055000008000029FFD132BD70B505007FF06D04A1
:10551000002D08D02868002805D0286C002802D06B
:1055200068681B2801D163483AE02800FFF7E0FFD4
:105530000600002E01D0300032E0280004F06EF8A2
:105540000400002C2BD15B48040028680079002857
:1055500013D16868002802D0012805D009E0012095
:1055600068600020040008E028000AF0E9FE04005A
:1055700003E028000CF0D4FC04002868007901281E
:1055800003D128000EF05AFE0400002C07D095F835
:105590009800002803D0280004F040F80400200000
:1055A00070BD38B505000024002D02D02868002801
:1055B00001D1404809E068681B2805D02800FFF7A2
:1055C000A3FF0400002CF6D0200032BD38B5040043
:1055D0007FF06D050420C4F8BC001620C4F8B800A4
:1055E0000021D4F8B40001702000FFF74EF901004B
:1055F000002801D0080000E0002032BD70B5040092
:105600007FF06D062000FFF703FC0500002801D0A5
:1056100028000CE0002060600120A0602000FFF75F
:10562000C0FF0100002801D0080000E0002070BD8C
:1056300038B50400DFF83C51002C02D02068002867
:1056400002D1DFF8E40533E020680079012815D1A4
:105650002000FFF7E4F8002802D1DFF8CC0527E0AE
:105660000320A060D4F8C000002803D0200003F07D
:10567000D4F81DE02000FFF7A9FF19E0A068012879
:105680000FD02000FFF7CBF8002802D1DFF89805F3
:105690000EE02000FFF7B2FF01000800002907D04C
:1056A00006E02000FFF77DFF010008000029FFD180
:1056B00032BD0000008FFFFF70B505002C6C002C80
:1056C00045D0286C407A002802D0A06C03F0D3FFAC
:1056D0000020A064286C807A002802D0E06C03F0DF
:1056E000CAFF0020E06414F5D47006F026F814F523
:1056F000DA7006F022F814F1500006F004FF14F1FD
:10570000A00007F01EF8D4F8440103F0B4FFD4F869
:105710004801002805D0D4F84C11D4F8480104F011
:1057200097F8D4F85801FFF736FD2800FFF793F8F3
:1057300006002800FFF797F8020033000121280037
:10574000FFF7B3F94FF49061200004F072F870BDD8
:1057500010B50400002C09D02000FFF751FA606E4C
:1057600003F089FF7421200004F063F810BD0000ED
:105770000081FFFF808FFFFF38B50400002C51D05F
:10578000D4F8A000002809D0D4F8C4502900D4F8D7
:10579000A00004F05DF80020C4F8A000206E0028EE
:1057A00007D0D4F888502900206E04F051F800206A
:1057B0002066E06C002805D0E06C03F0D1FEE06CC0
:1057C00003F059FF206C002811D02000FFF774FF70
:1057D000206C03F050FF206D03F0C2FE206D03F03B
:1057E0004AFFE06BFFF7B4FFE06B03F044FFA06BF0
:1057F000002805D0A06BFFF7ABFFA06B03F03BFFC9
:10580000D4F8D000002808D0D4F8D0000AF02EF93F
:105810000100D4F8D00004F01BF84FF4827120008E
:1058200004F007F831BDF8B50700BC2400253E00A0
:105830002A0021003000FEF70FFDF1BD2DE9F84FE1
:10584000C2B005000C0016007FF06D072100280093
:10585000FFF78EFC31002800FFF78CFC002C03D1F1
:105860000220A87101202873012068720120A8720B
:10587000012068730020A8731020C5F89C00022046
:1058800000905FF0000B15F1A0085A4600994046C1
:10589000FEF7E2FC5FF006084FF0FF0915F1A20ADF
:1058A0004A4641465046FEF7D7FC012C19D102A8C2
:1058B000DFF878174FF4807203F000FFDFF870070D
:1058C00000788DF804000120009001AB4FF4807245
:1058D00002A92800FFF708FD0700002801D03800C2
:1058E00041E0012E04D140F203306880288003E0BB
:1058F00040F20330688028804298022817D1DFF8F0
:1059000034072861DFF8300768652800FFF70CF8D6
:10591000002803D0DFF82407A86602E0DFF820079C
:10592000A8660020E866DFF8DC0A28671AE00EF0B7
:105930000DFD2861DFF8D00A68652800FEF7F4FF46
:10594000002803D0DFF8C40AA86602E0DFF8C00A26
:10595000A8660020E866DFF8BC0A28674FF480607C
:10596000C5F8AC00002043B0BDE8F08F000010B5D2
:10597000040014F1740008F051FA14F17C0008F0EE
:105980004DFAD4F8840000280BD0D4F88810D4F84D
:10599000840003F05DFF0020C4F884000020C4F8F8
:1059A0008800D4F88C0000280BD0D4F89010D4F8DC
:1059B0008C0003F04DFF0020C4F88C000020C4F8D8
:1059C0009000A06DFFF7E7FBBC21200003F031FF42
:1059D00010BD10B504000121200001F05AFF00287D
:1059E00001D0012008E00421200001F052FF00282E
:1059F00001D0032000E0002010BD01000800C0B26B
:105A0000012804D0022804D0042802D003E0012099
:105A100002E0032000E00020704701000800C0B24F
:105A2000012802D0032802D003E0012002E0042074
:105A300000E00020704701000800C0B2012809D032
:105A400014D303280AD007D305280BD008D306287F
:105A50000AD00BE003200AE0052008E0082006E059
:105A6000092004E00A2002E00B2000E0002070473B
:105A70000100080003280AD005280AD008280AD007
:105A800009280AD00A280AD00B280AD00BE00120E6
:105A90000AE0022008E0032006E0042004E00520DC
:105AA00002E0062000E00020704738B504000D0039
:105AB0002000FEF748FF0100002902D15FF0FF300F
:105AC0000DE00888002808D00A88280080B28242A9
:105AD00001D1002003E0891CF3E75FF0FF3032BD05
