:020000040800F2
:100000007043012045AB00082DAB00082FAB000862
:1000100031AB000833AB000835AB0008000000002E
:10002000000000000000000000000000052E000895
:1000300037AB000800000000AD2D0008DB2C0008E5
:1000400061AB000865AB000869AB00086DAB000848
:1000500071AB000875AB000879AB00087DAB0008F8
:1000600081AB000885AB000889AB00088DAB0008A8
:1000700091AB000895AB000899AB00089DAB000858
:10008000A1AB0008A5AB0008A9AB0008ADAB000808
:10009000B1AB0008B5AB0008B9AB0008BDAB0008B8
:1000A000C1AB0008C5AB0008C9AB0008CDAB000868
:1000B000D1AB000839AB0008D5AB0008D9AB0008BC
:1000C000DDAB0008E1AB0008E5AB0008E9AB0008D8
:1000D000EDAB0008F1AB0008F5AB0008F9AB000888
:1000E000FDAB000801AC000805AC000809AC000835
:1000F0000DAC000811AC000815AC000819AC0008E4
:100100001DAC000821AC000825AC000829AC000893
:100110002DAC000831AC000835AC000839AC000843
:100120003DAC000841AC000845AC000849AC0008F3
:100130004DAC00080B70000851AC000855AC00082D
:1001400059AC00085DAC000861AC000865AC000863
:1001500069AC00086DAC000871AC000875AC000813
:1001600079AC00087DAC000881AC000885AC0008C3
:1001700089AC00088DAC000891AC000800000000BC
:1001800095AC000899AC000840F0200070472DE9BC
:10019000F14FB0B0924604910DF142013A9A2B9181
:1001A00099464A7000200AE01AF8011B0498309A18
:1001B00090470028049000F043860D98401C0D9055
:1001C0009AF8000050B12528EED1002200210792B4
:1001D000089109920A910B920C9104E00D9800F09D
:1001E00031BE41F001011AF8010F2028F9D023286F
:1001F0000CD02B2804D02D2805D0302809D00BE0B6
:1002000041F00201EFE741F00401ECE741F00801A1
:10021000E9E741F01001E6E72A280FD1D9F80020DC
:1002200052F8040BC9F8002000280F9003D5404273
:100230000F9041F004010AF1010A14E00F92DFF877
:100240000C0C0AE00F9C844205DA04EB840302EBF9
:100250004302303A0F920AF1010A9AF80020A2F103
:1002600030030A2BEED39AF800202E2A03D04FF049
:10027000FF300E9029E01AF8010F2A2809D1D9F889
:10028000002052F8040BC9F800200E900AF1010A70
:100290001BE02D280CBF0AF1010A002000220E925B
:1002A000DFF8A85B0BE040B90E9BAB4205DA03EB2D
:1002B000830402EB4402303A0E920AF1010A9AF8E2
:1002C0000020A2F130030A2BEDD3ADF840100FF659
:1002D00080309AF8001000F0FBFE08B11AF8010B0C
:1002E0008DF842009DF84200682805D19AF8001068
:1002F00068290CD1622006E06C2804BF9AF800102F
:100300006C2904D171208DF842000AF1010A12AA69
:1003100006921AF801BBBBF125002CD01C3800F066
:100320009781001F022840F29381133800F0BA84AD
:10033000093800F08D81801E00F04F85401E00F0CE
:10034000FC84401E022840F28381001F00F0F584E7
:10035000401F00F0F280401E00F0A484401E00F018
:10036000DA80C01E0ED0801E00F09C84C01E00F0FB
:10037000998400F03DBD0122252107928DF8481097
:1003800000F042BDD9F8000050F8044BC9F8000055
:10039000002C059440F0AB802B994878002800F0A1
:1003A000A1804FF0FF340FF6B02000F0A9FE241A10
:1003B00040F0468500F028BD01236A4602A9304678
:1003C00000F00CFE002840F03B85641EF4D130960E
:1003D000079C12AE74B1309F16F8011B0498B84701
:1003E0000028049000F02C850D98401C641E0D9090
:1003F000F2D130970A9C3021002C8DF800100CDDD2
:10040000309E01236A4602A9304600F0E7FD00282D
:1004100040F01685641EF4D13096059E089C74B198
:10042000309F16F8011B0498B8470028049000F08C
:1004300007850D98401C641E0D90F2D130970B9CDF
:100440003021002C8DF800100CDD309E01236A460F
:1004500002A9304600F0C2FD002840F0F184641E7D
:10046000F4D1309605980899099C461874B1309FCC
:1004700016F8011B0498B8470028049000F0E084A7
:100480000D98401C641E0D90F2D130970C9C3021C9
:10049000002C8DF800100CDD309E01236A4602A965
:1004A000304600F09BFD002840F0CA84641EF4D161
:1004B00030969DF8400041077FF582AE2020002D48
:1004C0008DF800007FF77CAE309C01236A4602A9BC
:1004D000204600F083FD002840F0B2846D1EF4D168
:1004E00030946DE60FF65430059000F08DBC0E9DF3
:1004F000002D04D5204600F023FE044608E02A46DD
:100500000021204600F026FE002814BF041B2C46C4
:10051000089400F079BCD9F8001051F8040BC9F820
:10052000001020F00002002121F0FF33CDE902236A
:1005300012AC0594782100F04CBC2B99487820B17E
:100540004FF0FF340FF6C4202FE79DF842006228D9
:1005500060D0682817D06A283FD06C2806D0712850
:1005600047D074282CD07A281DD062E0D9F800102A
:1005700051F8040BC9F80010002866D14FF0FF3481
:100580000FF6A02011E7D9F8001051F8040BC9F8B4
:10059000001020B94FF0FF340FF6882005E70D99C1
:1005A000018000F031BCD9F8001051F8040BC9F8F3
:1005B0000010002849D14FF0FF340FF66820F4E610
:1005C000D9F8001051F8040BC9F8001000283CD1EC
:1005D0004FF0FF340FF64C20E7E6D9F8001051F841
:1005E000040BC9F8001080B94FF0FF340FF6342027
:1005F000DBE6D9F8001051F8040BC9F8001020B957
:100600004FF0FF340FF61C20CFE60D9AD317C0E948
:100610000023F9E3D9F8001051F8040BC9F80010D1
:1006200020B94FF0FF340FF6FC10BEE60D990170B3
:10063000EAE3D9F8001051F8040BC9F8001020B90A
:100640004FF0FF340FF6DC10AFE60D990160DBE3ED
:100650009DF842004C2807BFD9F80010CA1DD9F8F0
:100660000000C21D22F00702C9F80020D2E90001F3
:100670000832C9F80020CDE90201C80F02D007985E
:100680002D210AE0BDF84010880702D507982B21DC
:1006900003E0C80705D50798202112AA1154401C71
:1006A000079012A807994BF0200300EB010CDDE93D
:1006B0000201CDE92C01612BCDF814C021AC0BD087
:1006C0000E98002848BF062105D404BF4BF0200037
:1006D000672801D101210E91DDE902677B0043EA21
:1006E000D6735A15DB174FF0FF30834208BF8242A2
:1006F00010D13F0347EA16573603002F08BF002EDC
:1007000008D0ABF1610503211A2D089118D30FF61B
:10071000341110E0DDE902014A00521512F1010F17
:1007200011D108030FD1ABF1610503211A2D0891F6
:100730001FD30FF618110322604600F037FD63E364
:100740000FF6FC01F7E7DDE902016A4600F03AFD29
:10075000CDE902014BF02000612811D1059830222B
:100760000270811C0591BBF1610F0CBF78215821EB
:1007700002E00FF6D401DEE741700798801C079075
:10078000DDE9020120F0000231F0004308BF002A39
:1007900002D10026002542E14BF02008B8F1610F9C
:1007A00040F093800E98002847BF21210191401C02
:1007B0000190019EDDE92C01761C00220023DDE979
:1007C000024500F037FD38BF85F0004500988DF8F0
:1007D0008420001F002E00900DF1850732DD204699
:1007E00029460022002300F03FFD2BD21C2200F0FE
:1007F00055FD04460D4600F0EFFDF61F002E804625
:1008000009DD00F005FE02460B462046294600F0B1
:10081000C7FE04460D46F81D0721B8F1000F0CDD98
:10082000491E5EBF08F00F0200F8012D4FEA28189C
:10083000F3D502E0002200F8012D491EFAD5C71DAC
:10084000002ECCDC0DF185003F1A01980DF18504D6
:100850003E468742C8BF0646002E2FD4BE4206DA67
:100860000DF18500815D0829A8BF0F2000DA002066
:10087000324621A98D1800E0761E15F80139521E66
:100880008342F9D00F2804D10DF18501885C401C0A
:100890008854002A04D50098001D21AC761C0090D5
:1008A000701E0BD421180B783033DAB23A2AA4BF69
:1008B0005B443A3B401E01F80139F4D50E990029FA
:1008C00040F1AC80701E0E90A8E00099DFF8FC2685
:1008D00047F29750414391FBF2F20092DDE92C453B
:1008E000C2F10702002A25F0004504DD2046294612
:1008F00000F049FB0BE052420020DFF8D41600F074
:1009000042FB02460B462046294600F0BBFE044649
:100910000D46B8F1660F06BF009E0A3606260E98F1
:100920003618142EC8BF142630208DF884000DF11F
:100930008507002E34DD2046294600F0C7FF01461A
:100940000A4607F1080C04200A27B2FBF7FE0EEB5B
:100950008E03A2EB430230320CF8012C0A22BEFBBC
:10096000F2F202EB8203AEEB43033033401E0CF88D
:10097000023DE9D1083E002E0CF10807D9DD0846FA
:1009800000F0B6FF02460B462046294600F008FE5E
:100990000022DFF8403600F0B9FF04460D46CAE7F2
:1009A0000DF185003F1A0DF1850404E00098401E0A
:1009B0007F1E0090641C20783028F7D0B8F1660FB5
:1009C00002D1009E761C04E0B8F1650F0CBF012631
:1009D00000260E983618B742B8BF7E1E002E1DD4D2
:1009E000BE4204DAA05D3428C8BF392000DC3020C4
:1009F0003246611E8D1800E0761E15F80179521EF0
:100A00008742F9D0392802D1A05C401CA054002AAA
:100A100004D50098401C0C46761C0090009D01F007
:100A200059F8406A0778DDF8388030B2002802DCD7
:100A300001260FF21C644BF02000662808BF6D1CD5
:100A400016D0672845D128B210F1040F47DB404586
:100A500045DA9DF840106D1C080703D430B24045BC
:100A6000D8BF804628B2B8EB000848BF4FF0000856
:100A70000FFA85FBBBF1000F00F3B3800898411C0F
:100A80000891302205990A54B8F1000F03DC9DF853
:100A90004010080704D50898411C089105990F5487
:100AA00018EB0B0FB8BFC8F100052DB268424544E2
:100AB00032B20B909542B8BF2E46059B089836B2CD
:100AC000099632462146184400F070FBAD1B0C9588
:100AD000D1E0BBF1610F17D14FF0700B19E030B2CC
:100AE000404504DA9DF840100A0758BF8046B8F127
:100AF000010848BF4FF00008BBF1670F14BF4FF06B
:100B0000450B4FF0650B04E0BBF1410F08BF4FF000
:100B1000500B0898411C0891B8F1000F059914F882
:100B2000012B0A5403DC9DF8401008071AD50898D9
:100B3000411C0891B8F1000F05990F5412DD761E83
:100B400030B28045B8BF46460598089B32B2214670
:100B5000184400F02BFB089836B230180890A8EB28
:100B600006000B9005980899014428B2002881F8E6
:100B700000B003D42B204870891C04E02D224A7059
:100B80000546891C6D4200202CAA0AE02B460A2546
:100B900093FBF5F505EB8504A3EB440302F8013B59
:100BA000401C2DB2002DF1DC012806DC4BF02002A8
:100BB000652A04BF302201F8012B00282CAB08D194
:100BC000302001F8010B06E0401E1A5C303201F8BB
:100BD000012B0028F8DC059A08981044091A09919D
:100BE00049E031B228B281421CDA059B089832B242
:100BF0002146184400F0DAFA089936B271180891C3
:100C0000ABEB0600B8F1000F0B9003DC9DF8400041
:100C1000020704D5059847540999491C0991CDF854
:100C2000308028E0059B08982AB22146184400F03D
:100C3000BDFA0898761B5844B8F1000F089003DC01
:100C40009DF840100A0703D5411C089105990F54DF
:100C500030B28045B8BF46460598089B32B204EBD7
:100C60000B01184400F0A2FA089836B23018089028
:100C7000A8EB06000B909DF8400000F0140010282F
:100C800040F0C280079A08980B99821809988A1830
:100C900082180C980F998018884280F2B580081A43
:100CA0000A90B1E09DF84200622808D068280ED072
:100CB0006A2814D06C281FD0712810D01CE0D9F8F5
:100CC000001051F8040BC9F80010C0B21AE0D9F8AE
:100CD000001051F8040BC9F8001080B212E0D9F8E6
:100CE0000000C21D22F00702C9F80020D2E900016D
:100CF0000832C9F8002006E0D9F8001051F8040BBA
:100D0000C9F800100021CDE902019DF8400002075A
:100D10005AD5DDE90201002908BF002854D04BF064
:100D20002002782A50D1079912A830234354491C35
:100D30004A1C079200F801B046E09DF84200622884
:100D400008D068280ED06A2814D06C281FD07128CB
:100D500010D01CE0D9F8001051F8040BC9F80010AD
:100D600040B21AE0D9F8001051F8040BC9F800108D
:100D700000B212E0D9F80000C21D22F00702C9F843
:100D80000020D2E900010832C9F8002006E0D9F8B5
:100D9000001051F8040BC9F80010C117CDE9020189
:100DA000002902D507982D220AE0BDF840008107EE
:100DB00002D507982B2203E0C00705D5079820220B
:100DC00012A90A54401C079012A8079901440591E2
:100DD000594602A800F04EF816E001200790D9F815
:100DE000001051F8040BC9F800108DF848000BE012
:100DF00001222521BBF1000F07928DF8481003D086
:100E0000022007908DF849B00F9D07980A992D1A76
:100E100008986D1A0B992D1A09986D1A0C992D1AAC
:100E20009DF840006D1A41073FF5D2AA2020002D01
:100E30008DF800007FF7CCAA309E2C46FFF7BCBA95
:100E40004FF0FF3031B0BDE8F08F0000CBCCCC0CC0
:100E5000686A6C747A4C00007072696E74665F73B5
:100E60003A2062616420257320617267756D656E3A
:100E7000740000002DE9FE4C06468B463769584643
:100E80006F2808BF082205D0FFF77EF9782814BF25
:100E90000A221022D6E900013C2504468A46BBF10D
:100EA000640F18BFBBF1690F04D1002902D5644259
:100EB0006AEB4A0ABAF1000F08BF002C0CD1306B64
:100EC00050B9082A3BD196F83810080737D5302199
:100ED0003B2587F83B1032E08DF800B09346204662
:100EE00051465A46002300F0FBFD3032D0B26D1E51
:100EF0003A2801950DDA7A55204651465A46002384
:100F000000F0EEFD04465FEA010A08BF002C05D19F
:100F100008E09DF800001218513AECE7F1687819E2
:100F20008142DCD3BBF1080F09D196F838000107E4
:100F300005D5785D302802D06D1E30207855C5F17A
:100F40003C02306BB26179198242F16007DA318F6D
:100F5000821A4FF6EF7001403262318710E00028AC
:100F60000ED596F8380000F01400102808D1736BE5
:100F70007069316A1B1A5B1A9B1A002BC8BF336257
:100F800003B0BDE8F08C2DE9D04306460F46144669
:100F90004FF00008DFF8409012E0E00707D5424626
:100FA0004B463046394600F0B1FC06460F464046F7
:100FB000494642464B4600F0A9FC641080468946EB
:100FC000002CEAD130463946BDE8D083A086010026
:100FD0000000F03F84D7974100002440F8B5054653
:100FE0000E4617461C4600205CB117F8011BB0687E
:100FF000A847B06030B1F06A401CF0620020641E67
:10100000F3D1F2BD4FF0FF30F2BD00007072696E97
:1010100074665F733A20256E20646973616C6C6F2F
:10102000776564007072696E74663A20626164204C
:10103000256E20617267756D656E7400000000009A
:101040006E616E004E414E00696E6600494E46006C
:101050003000F0B40246106895681318506803EB2E
:101060005004C00748BF4D44A3422DD013F8016B74
:1010700016F0030004BF13F8010BC01C31090F293F
:1010800007D113F8011B0F3103E013F8017B05F8BA
:10109000017B401EF9D10029E6D013F8010BC6F3FD
:1010A0008107032F08BF13F8017B00EB07204042A4
:1010B00028440026B71E8F421EBF10F8017B05F89A
:1010C000017B761CF6D1CFE7F0BC02F10C00704733
:1010D000C9B202788A421AB11CBF10F8012FF9E791
:1010E00018BF002070478268521C8260426832B18B
:1010F00003685A1C026019704168491E41607047BC
:1011000080B500B906A005490B681BB12222002159
:10111000984701E000F067FD222002BD643F0120F6
:10112000636F6E73747261696E742068616E646C53
:1011300065723A20626164206D6573736167650052
:1011400000F1010310F8011B11B110F8011BFBE7BE
:10115000C01A7047C9B2830706D0521E22D310F8B6
:10116000013B9942F7D11FE0083A13D302F1040280
:1011700041EA012141EA014150F8043B121F21BF1D
:101180004B40A3F1013C2CEA030C1CF0803FF3D050
:10119000C9B2001F083210F8013B521E28BF91EA65
:1011A000030FF8D818BF0120401E70474AB1000055
:1011B00011F8013B521E00F8013B1CBF11F8013B26
:1011C000F8E7704710B5144600F002F8226010BD31
:1011D000C1F30A5343B14A0012F5001F28D2A3F20B
:1011E000FE32A1EB0251704750EA410C20D001F0D1
:1011F000004C31EA0C01B1FA81F204BFB0FA80F37D
:10120000D2180B3AB2F120032CBF00FA03F191403F
:1012100041EA0C013EBFC2F1200C20FA0CF3194345
:101220009040524240F2FD33D21A01EB0351704715
:101230000022704741EA030C50EA4C0C52EA0C0CB5
:101240004FF4001C09D307D01CEB410F9CBF1CEBD3
:10125000430F8B4208BF824270471CEB430FFBD801
:10126000994208BF9042704741EA030C50EA4C0C87
:1012700052EA0C0C4FF4001C09D307D01CEB410FB1
:101280009CBF1CEB430F994208BF904270471CEB78
:10129000410FFBD88B4208BF82427047124254D4A0
:1012A00040F2FF7C1CEA11530FD0634531D09B18EC
:1012B00063453CBF01EB0251704701F0004141EA38
:1012C0000C510020AFF30080704750EA410320D05A
:1012D00001F0004C91EA0C011CD0B1FA81F30B3BF8
:1012E0009A420DD9D21A994051EA0C01C3F1200C4F
:1012F00020FA0CFC61449840531C40F2FF7CD7E775
:10130000914041EA0C01C2F1200C20FA0CF3194380
:1013100090407047B0FA80F31533202BE0D3202A99
:10132000EED3203A203B9A4209D9D21A00FA03F1AF
:1013300041EA0C010020531C40F2FF7CB8E700FAA0
:1013400002F141EA0C0100207047524240F2FF7C5A
:101350001CEA11530DD06345DBD0B2EB030C3CBF4C
:10136000A1EB025170470CF1010221EA035141F453
:10137000801150EA410CCCD001F0004C352A27DC1A
:1013800030B481EA0C01B2F1200309DAC2F1200382
:10139000044601FA03F5D0402843D1409C400CE0BC
:1013A000C3F12002450020FA03F418BF44F0010401
:1013B00021FA03F091400C43002174F1004550F1F3
:1013C000000051EB0C01244230BC7FF47BAF70472E
:1013D0006146002076E72E00C1F30A5340F21E4218
:1013E000D31A0CDDCA0283F3070342EA505242F0DB
:1013F0000042DA4002EBE17282EAE17070476FEA84
:10140000E17203F2E13008B182F00040704743001E
:1014100010F0004160B148BF4042B0FA80F2904005
:10142000D21CC2F5846241EA025202EBD02140058F
:1014300070470000841A71EB030604D26E40001B53
:10144000B141121973414FF4001C1CEB410F34BF22
:101450007CEB430683E00C0DA4EB1356362E00F311
:101460007C80012E45EAC32341DC43EA525312BF7C
:10147000D20292025B08240545EAC12141EA50519B
:10148000D2EBC020994125D407D1B0FA80F610FAEA
:1014900006F162D00020203608E0B1FA81F6B140B2
:1014A000C6F1200220FA02F21143B0404FEAF47470
:1014B000B4EB465434F001064FEA74040AD8D6F56A
:1014C0000016760D04F00044F04061FA06F2504038
:1014D000F1404840C00A40EA415021F0004128BF95
:1014E0005FEA500550F1000044EBD12135E0DB0A02
:1014F00045EAC121C90AB6F120050EDD42EA0242E1
:10150000120CC5F1200603FA06F6EB4042EA060586
:101510006D42984161F100010DE062FA06F5F2407A
:10152000554063FA06FC82EA0C02F3405A406D42D1
:10153000904161EB030111F4801F05D1641E620527
:1015400002D06D004041494121F48011430875F1FA
:10155000004350F1000041EB045170BC70471CEB9C
:10156000410F15D223F0004352EA43060BD04FEA55
:101570004C0CBCEB410F04D80C0D661E342EB7DDAD
:10158000EBE7801A994150EA410608BF0021E4E7E1
:1015900008BF1CEB430F28BF6FF00001DDE7000020
:1015A00070B491EA030F4FF000457FF543AF6B40F5
:1015B000841A71EB030603D2001BB1411219734167
:1015C0004FF4001C1CEB410F34BF7CEB430442E0A2
:1015D0000C0DA4EB1356352E4FDC45EAC323DB0A72
:1015E00045EAC121C912B6F120050DDD63FA05F601
:1015F000EB4086EA0305124218BF45F00105C0180A
:1016000051F100010CD213E062FA06F5F2405540A8
:10161000F3415A40B340F3405A408018594107D330
:1016200049085FEA30005FEA350528BF45F001054B
:1016300001F58011420875F1004250F1000041EBC4
:1016400004514E0016F5001F70BC38BF70470020D3
:10165000090D090570471CEB410F10D252EA4306F1
:101660000BD0BCEB410F05D80C0DAB43661E342EDE
:10167000B6DD02E0AB438018594170BC704770BCC6
:1016800070470000F0B540F2FF7581EA030C0CF0E2
:10169000004C15EA11541DBF15EA1357AC42AF4276
:1016A000E5E0BC41C1F31301C3F31303801A994170
:1016B00043F4801304D2641E001849418018594134
:1016C000C90241EA5051B1FBF3F603FB1611A2FB2C
:1016D0000675D7EBC020A94102D2761E8018594169
:1016E000C90241EA5051B1FBF3FE03FB1E11A2FBFC
:1016F0000E75D7EBC020A94103D2AEF1010E8018C0
:101700005941890241EA9051760546EA8E2EB1FB95
:10171000F3F603FB1611A2FB0675D7EB8020A94157
:1017200002D2761E80185941C90241EA50514EEA50
:10173000060EB1FBF3F603FB1611A2FB0675D7EB01
:10174000C020A94102D2761E80185941C90241EA3F
:101750005051B1FBF3F703FB1711A2FB0735D3EB95
:10176000C020A94167F100070CBF004247F0010704
:1017700066F3D5274FEA1E31B80814F5806412DDF0
:10178000BD0775F1004250EB0E5051EB045111F5BD
:10179000801F5CBF41EA0C01F0BD4CF07F6141F05D
:1017A000E0410020F0BDBD076D0840EA0E5041F455
:1017B0008011D4F10104B4F120060ADAC4F1200644
:1017C0000200E04001FA06F3E1401843B24015433D
:1017D0000EE0342C13DCC6F1200445EA40056D0808
:1017E00020FA06F2154321FA06F0A1400D4300212C
:1017F00075F1004250F1000051EB0C01F0BD0020EA
:101800005FEA0C01F0BDCFB992185B41B3FA83F7E0
:1018100004BFB2FA82F6BF190B3FB7F120062FBF03
:1018200002FA06F3BB40C7F1200622FA06F638BFDB
:101830003343BA401CB1E419641E33E77F4231F0F0
:101840000041B1FA81F404BFB0FA80F6A4190B3C50
:10185000B4F120062FBF00FA06F1A140C4F1200622
:1018600020FA06F638BF3143A0403C1B1AE7AC42D1
:101870001ABF05EA1357AF4212E050EA41061CBFF7
:1018800052EA4306BFE750EA4107304661461CBFB3
:1018900041EA0551F0BD52EA430C08BFC143F0BD17
:1018A00000204FF4001616EB410F98BF16EB430FC4
:1018B00008BF16EB410F24BFC14305E016EB430FF1
:1018C0000CBF61464CEA0551F0BD0000400D40F2EE
:1018D0001E4C40EAC120BCEB115C40F0004003D438
:1018E0008CF30701C84070476FEAE1707047000051
:1018F00050B1B0FA80F18840C91CC1F58461090576
:1019000001EBD021400570470146704730B540F2E9
:10191000FF7C1CEA11541DBF1CEA13556445654544
:101920003FE0641981EA030C6FF35F530CF0004C45
:1019300043F48013C90241F0004141EA505EC50200
:101940001100A5FB020200284FF00000EEFB012071
:101950004FF00001E3FB052118BF42F001024018DF
:1019600000214941E3FB0E01A4F580640D0302D27E
:1019700092184041494154F1010470DD450872F16B
:10198000004250F1000051EB0451A1F5801102D446
:1019900041EA0C0130BD40F2FF7E4CEA0E510020BE
:1019A00030BD0CEA1355644518BF654581EA030C48
:1019B0000CF0004C41D050EA410E1CBF52EA430EDD
:1019C00002E06146002030BD24422C441BD15FEA76
:1019D000050EF6D0090302BF01460020AEF1140E39
:1019E000B1FA81F5AEEB050401FA05FE0C35C5F13F
:1019F000200100FA05F5C8404EEA000E6FF35F5370
:101A000043F480139CE733F00043B3FA83F504BF3B
:101A1000B2FA82FE75440B3D641BB5F1200E2FBF58
:101A200002FA0EF3AB40C5F1200E22FA0EFE38BFCB
:101A300043EA0E03AA40641C7CE750EA410E14BF3F
:101A400052EA430E6FF000014FF4001515EB430FFF
:101A50008EBF194615EB410F9DE7B4D830BDD4F1C8
:101A60000104B4F120050FDAC4F12005520828BFA3
:101A700042F0010210FA05FE01FA05F57244E2BFD8
:101A8000E0402843E1400FE0352C9ADCC5F120040A
:101A900052EA400220FA05F218BF42F0010231FA80
:101AA00005F0A1400A43002172F1004250F100000C
:101AB00051EB0C0130BD0000FFE741381A2880418E
:101AC000C00F7047A0F141011A2938BF203070477C
:101AD0000148704701487047B40100207C01002094
:101AE000D3BBD9B1B2F5803F5BD2022A1ED98C4656
:101AF000B1FBF2F102FB11C31B0443EA1043B3FB39
:101B0000F2FC02FB1C3380B240EA0343B3FBF2F069
:101B100002FB103240EA0C4000237047022A05D92C
:101B20008446B0FBF2F002FB10C270474AB105D107
:101B300000F0010249085FEA3000704700220023EC
:101B4000704700F053B80B000200002100207047DE
:101B5000F7D3002200237047904271EB030CF2D3BD
:101B600070B5B1FA81F4B3FA83F52C1BA340C4F12C
:101B7000200532FA05F63343A2405FF00046E64006
:101B800002E05B085FEA3202841A71EB030524BFAE
:101B9000204629467641F4D302000B003000002194
:101BA00070BD70B5B1FA81F4B2FA82F5C4F12004C7
:101BB0006419B4F12006DAD3B2405FF00044F44077
:101BC000002502E052085FEA3303C61A71EB020EE9
:101BD00024BF3046714664416D41F3D302000B00CF
:101BE0002000290070BD012000F002B870470000FD
:101BF00080B5AFF30080024A11001820ABBEFBE7AE
:101C0000260002002DE9FC47804616468A46994682
:101C1000B00000F025FE05002FD0582000F020FE77
:101C2000040027D00A9F582100F028FF2563A52231
:101C3000B100284600F026FF206B00EB86010E1F46
:101C4000F608F6005022BAF1000F0ED000231AF861
:101C50000350E01880F834501AF8030010B15B1CF0
:101C60000A2BF4D3002084F83D00052F08D300F0A0
:101C700058FCFEE7284600F09EFE4FF0FF3086E05D
:101C80000B9DE762C24604F14008201DC8F80870A9
:101C900000F022FF04F1180000F01EFF2461C7F1DC
:101CA0000507A76164624A465146304600F052FF7C
:101CB000206005B12C6000F0E6FFDFF86C55DFF81E
:101CC0006C95A86E401CA8661426686E30BB6C66C6
:101CD000A86E01282AD1002706FB07F0284400F04F
:101CE000EEFE7F1C052FF7D305F1840A504600F065
:101CF000E6FE05F19807384600F0E1FE484600F0A0
:101D0000DEFE09F1140000F0DAFE09F1280000F00F
:101D1000D6FEC9F83CA0C9F8407007E0686F28B942
:101D2000E06A6A6ED16A884228BF6C66D9F85000B2
:101D3000401CC8F800000122E16A2B6F8A4013435F
:101D40002A1D71432B67231D5158A1608A68E260E8
:101D50008A6853608B60E16AE26A71432944616179
:101D60005643A959491CA951C9F8500000F0A4FFD5
:101D7000686F58B1696EC86AE16A884206D2DFF8B6
:101D800020264FF08050106000F0ADFA0120BDE831
:101D9000F68780B5A8B1DFF89024D2F88010491CEE
:101DA000C2F88010D2F88010012904D000F0D6F9D2
:101DB00000F099FAFEE7002100F006FD00F066F859
:101DC00008B900F08CFA01BD040007D1502080F35F
:101DD0001188BFF34F8FBFF36F8FFEE770475858DE
:101DE000A060231D8268E260826853608360704750
:101DF000F0B585B05FF000031EA102AAC85CD05404
:101E000010B15B1C0A2BF9DB00260FF29954DFF8A6
:101E10001854002705EB860101F17C000190009722
:101E20000023822202A92046FFF7ECFEA0B1761C17
:101E3000002EEFDD5021012813D181F3118800F02D
:101E400052FADFF8E8034FF0FF31416501226A677B
:101E50000020E86600F0A0FEDFF8D013886D05B022
:101E6000F0BD10F1010FF7D181F3118800F03BFABA
:101E7000FEE7000049444C4500000000DFF8A813CD
:101E8000D1F88000401CC1F880007047F8B500F020
:101E9000FAFEDFF89453D5F880000024002628B914
:101EA000502181F3118800F01EFAFEE7D5F880007A
:101EB000401EC5F88000D5F88000002863D1A86EC8
:101EC000002842D15FE0F868C468E169A06A226A2C
:101ED0008A60216AE2694A6004F1180142688A4214
:101EE00004BF226A4260A6620268521E0260A268B3
:101EF0006069E1689160E368A1685960211D4268EA
:101F00008A4204BFE2684260666114220168491E89
:101F100001600121E36A286F994008432867534311
:101F2000281D221DC058A060EF188168E1608168FB
:101F30004A6082606761E858401CE850696EC86A70
:101F4000E16A88423CBF0120A867DFF8E072386888
:101F50000028B8D10CB100F056FABC6C44B100F0C6
:101F600024F808B10120A867641EF8D10020B864E5
:101F7000A86F40B16A6EDFF828144FF08050012638
:101F8000086000F0B0F900F097FE3046F2BDDFF8CF
:101F90009802C06E704738B1502181F31188BFF3A9
:101FA0004F8FBFF36F8FFEE77047F8B59E4E9F4F80
:101FB000D6F880000024002840F08E80F56E6D1C5D
:101FC000F5660CD1F86B0068FFF7E5FFF96B386C2C
:101FD000F8633964F86C401CF86400F014FA786D0A
:101FE000142185426BD363E0FA6BD068C2685068F5
:101FF00085426FD393685069D2F80CC0C3F808C00B
:10200000D368D2F808C0C3F804C0131DD0F804C0C8
:102010009C4504BFD36843604FF0000EC2F814E043
:1020200003685B1E0360906AC8B1D369D2F820C010
:10203000C3F808C0136AD2F81CC0C3F804C002F188
:102040001803D0F804C09C4504BF136A4360C2F86B
:1020500028E0D0F800C0ACF1010CC0F800C00120AD
:10206000D36AD6F870C0984040EA0C0C4B4306F196
:10207000040EC6F870C05EF80300906002F1040E12
:10208000D0F808C0C2F80CC0D0F808C0CCF804E002
:10209000C0F808E0F018506156F803C00CF1010CCC
:1020A00046F803C0736ED26AD86A904238BF0124E2
:1020B000F86B0068002897D14FF0FF327A65706E98
:1020C000C06A41437158022928BF0124B06F30B162
:1020D000012404E07865F2E7B86C401CB86420463F
:1020E000F2BD514AD2F8800010B1012191677047CA
:1020F00090671421136FB3FA83F0C0F11F004843B7
:102100001118086838B9502181F31188BFF34F8F37
:10211000BFF36F8FFEE7486843684B6001F108002A
:10212000834204BFCB684B604968C8685066516EF3
:10213000704710B50C4620B900F010F800F0D3F845
:10214000FEE7DFF814375A6E02F1180100F0D4FCF4
:102150002046BDE81040012100F036BB502080F33E
:1021600011887047F0B5C068C06820B9FFF7F6FF66
:1021700000F0B9F8FEE7C269816A036A9360026AF7
:10218000C369536000F118024B68934204BF036AAD
:102190004B600A68521E0A600023234AD2F880105E
:1021A00039BB85684169C468AC60C56884686C6087
:1021B000051D4C68AC4204BFC4684C6043610126F5
:1021C0000C68641E0C601421C46A156FA640354368
:1021D00015674C43151D061D2959816017198D6817
:1021E000C5608D686E608E6047611159491C115140
:1021F0000DE0DFF868365968C16100F118058C6898
:1022000004628C6865608D601968491C196083627E
:10221000536EC06AD96A814203D2012101209167BD
:10222000F0BD0020F0BD0000D03A012020010020C8
:1022300070B5DFF82436D3F88020502422B984F317
:10224000118800F050F8FEE741F000410160C168DC
:1022500021B984F3118800F046F8FEE7446802696A
:102260008568A5608468456865605668864204BFD5
:1022700085685560002404611068401E10608A68FB
:102280004869CC689460CA688C6854600A1D4468C8
:10229000944204BFCC68446000224A610468641E12
:1022A00004600124CA6A1D6F944025431D671420F1
:1022B00042431D1DA85888600D1D8468CC60846849
:1022C00065608560981848619C58641C9C505A6EE3
:1022D000C96AD06A88423CBF0120986770BD304807
:1022E0004FF080510160BFF34F8FBFF36F8F704786
:1022F00010B5FFF769FD00F0C6FCDFF86005DFF8F8
:102300005815C26C2260C86E6060BDE8104000F0D5
:10231000D3BCDFF84815DFF84025CB6C0360D16EE5
:1023200041607047F8B504460D46502024B980F34B
:102330001188FFF7D8FFFEE725B980F31188FFF772
:10234000D2FFFEE700F09FFCDFF80C05D0F86CE050
:102350002B68616813F1010FAEEB010214D0DFF8B6
:10236000FC64F76CD4F800C0674505D08E4503D3F4
:102370000020012428600CE09A4207D29A1A2A60B1
:10238000F16C2160C06E6060002402E000202860D3
:10239000012422E1DFF8C0040121816770470000B9
:1023A00004ED00E010B5DFF8B04400F006F8206856
:1023B0000228FAD3FFF793FFF7E770B5DFF89844E8
:1023C000DFF8985411E000F05EFC286AC668301D02
:1023D00000F0ABFBA06E401EA066686C401E6864F7
:1023E00000F06AFC304600F004F8686C0028EAD17E
:1023F00070BD10B50446206B00F0DDFA2046BDE844
:10240000104000F0D8BADFF85414C86B006818B94F
:102410004FF0FF324A657047CB6BDA681068486549
:102420007047DFF83404406E7047F8B5044600206A
:10243000002C38D0E16ADFF820546B6EDA6A9142E2
:102440002BD2A369002B04D46A6ED06AC0F10500B8
:10245000A06114266269714329448A4219D100F0AF
:1024600023F8012728B9296FE06A07FA00F08143B1
:102470002967221D686EC16AE1620846296F87409C
:1024800046430F43281D2F678059A06000F092F843
:1024900008E0696EC86AE06204E0A16C6A6ED36A03
:1024A000994200D20120F2BD201D00F03EBB70B564
:1024B00004460021002C32D0DFF89C53686E502275
:1024C000844202D000F02DF8FEE7E06C10B900F075
:1024D00028F8FEE7E36AA26C401E9342E0641ED037
:1024E000E8B9FFF7E1FF012628B9296FE06A06FA8B
:1024F00000F0814329672B1DA16CE162C1F1050049
:10250000A0618E402A6F1420164341432E67FFF7C7
:1025100066FC681860616A58521C6A5001210846BE
:1025200070BD82F31188BFF34F8FBFF36F8F704779
:1025300070B504003DD0E06C502320B983F31188BE
:10254000FFF7D1FEFEE7A26C914238BF1146E26A66
:102550008A422ED001282CD1DFF8FC52686E8442CA
:1025600004D183F31188FFF7BEFEFEE7A369E162A1
:10257000002B5CBFC1F10501A161142661697243A2
:102580002A44914215D1FFF78FFF28B92A6FE06ADC
:10259000012181408A432A670121E26A286F914024
:1025A0000843564328672A1D9059A060221D00F059
:1025B00001F870BD8168E16081684A608260A81995
:1025C0006061A959491CA9517047DFF88C02406E1F
:1025D00010B1C16C491CC164704700F06DFB20460E
:1025E000F2BD2DE9F843894690461D4600F03CF8BF
:1025F000786E089E90F8540002280BD0796E086D12
:1026000020EA0909C1F850900121786E80F8541031
:1026100006B1012400F050FB1CB10121304600F04E
:10262000D3F8FFF733FC14B108B9FFF758FE00F0F8
:102630002AFB15B1786E006D2860786E90F8540012
:10264000022818BF002406D1796E086D20EA080818
:10265000C1F850800124796E002081F8540000F008
:102660002BFB2046BDE8F283002438B1502080F3D4
:102670001188BFF34F8FBFF36F8FFEE7DFF8D8717C
:10268000D7F88000401CC7F8800000F0FCBA0000BA
:102690002DE9F8430446914698460126502724B96F
:1026A00087F31188FFF71FFEFEE721B187F311883A
:1026B000FFF719FEFEE7089D00F022FBEFF3118102
:1026C00087F31188FFF70FFE0DB1206D28600220FF
:1026D00094F85430604A84F85400B8F1040F1AD8C2
:1026E000DFE808F0080311061500206D49EA00092B
:1026F000C4F85090012B56D1A06AA0B187F311887D
:10270000FFF7F1FDFEE7206D401C2065F2E7022B8C
:10271000EED1002647E0D06E0028EBD087F3118879
:10272000FFF7E1FDFEE7D2F8800050BBA3686069C7
:10273000E5689D60E368A5685D60231D45689D426E
:1027400004BFE568456000236361271D05686D1EB1
:102750000560E36A156F06FA03F005431567142058
:10276000151D4343EB58A3609D68E5609D686F604D
:102770009F60E36A58431318636115586D1C155028
:1027800007E000F01BF89D6825629D686F6000F00F
:102790000FF8536ED86AE36A984204D2099800B1E0
:1027A00006600120906781F311883046BDE8F2830E
:1027B0009F60A06203685B1C036070472748436802
:1027C000E36104F1180770472DE9F047224D234FCC
:1027D000D5F86CA0D7F83C80D7F840900C46696ECD
:1027E0000646081D00F0A1F930B9686E296FC06A6D
:1027F000012282409143296716F1010F15D1A4B13E
:10280000F86A696E88608268696ECA606B6E8168FA
:102810001A1D4A606A6E111D816007F12800696EF9
:102820004861B86A401CB86213E0686E564446605E
:102830005645686E05D2011D4846BDE8F04700F0D8
:102840005BB9011D404600F057F9786D864238BFEC
:102850007E65BDE8F0870000D03A0120200100200D
:102860002DE9F84604004FF0000A554612D014F145
:10287000080F0ED2083414F0070F0BD004F0070134
:10288000C1F108014FF0FF30401AA04228BF0C19D7
:1028900000D20024FFF7F2FA7649886801F11C02A1
:1028A000D8B901F11C0717F0070F4FF49630134603
:1028B00005D0D31DDB08DB00C3F596301018C01817
:1028C0000838C008C0000B604D6088604560056036
:1028D000C71A5F6018600F61CF605027002C61D469
:1028E00060D0CB68A3425DD3D1F800E08C4696451A
:1028F00022BF614801EB0009F14502D200F0B3F8B4
:10290000FEE7DEF80400A0420BD2DEF8000040B182
:10291000F4468646964528BFF145F2D200F0A3F86A
:10292000FEE78E68B6453DD0DCF8000000F1080AED
:10293000924528BFD1450AD3DEF80020CCF800200C
:10294000DEF80460A64205D200F08DF8FEE700F044
:102950008AF8FEE7361B112E10D30EEB040919F08E
:10296000070002D000F07FF8FEE70EF104000651E8
:10297000CEF804404EF80420CCF80090DEF80400B5
:102980000A691B1A934298BF1A460A61CB6040F04D
:102990000040CEF80400CEF800500AF007054A695E
:1029A000521C4A61FFF772FA15B100F05CF8FEE7BD
:1029B0005046BDE8F286002800D170472DE9F0416D
:1029C0002C4C04F11C08A0F108065027464522BFF4
:1029D00029482518B54205D37168002905D400F0AF
:1029E00042F8FEE700F03FF8FEE7306810B100F073
:1029F0003AF8FEE721F000417160FFF73FFAE16825
:102A000070684118E160214600E001460868B04264
:102A1000FBD3A14206D0414528BF8D4202D200F02F
:102A200022F8FEE74A688B18B34203D17068821817
:102A30004A600E4672680B68B018984208D1A068C8
:102A4000834204D05868821872601B6800E0034615
:102A50003360B14218BF0E60A069401CA061BDE8A0
:102A6000F041FFF713BA87F31188BFF34F8FBFF31D
:102A70006F8F7047FC0100201B2C0100002200F02A
:102A800077B9000062F30F2262F31F4200B500BF66
:102A9000130096469446103928BFA0E80C50FAD887
:102AA0005FEA417C28BF0CC048BF40F8042BC9072F
:102AB00028BF20F8022B48BF00F8012B00BD4FF0C3
:102AC000FF3200F1080182604160C16000F108023C
:102AD000026100210160704700210161704710B55B
:102AE00042684A6094688C6093685960916008619C
:102AF0000168491C016010BD30B50D6815F1010F6A
:102B000008BF046907D000F1080400E01C466368B0
:102B10001A689542FAD262684A6091608C6061607E
:102B200008610168491C016030BD10B54268016947
:102B3000836893608268436853604C68844204BF32
:102B400083684B60002202610868401E08600868C4
:102B500010BD0000490810B54900A0F120034FF056
:102B6000807499611A60DC616FF002020FF20D014E
:102B7000596140F8242D203810BD0000714A516879
:102B8000502011F1010F80F31188BFF34F8FBFF375
:102B90006F8F00D0FEE7FEE77CB56B496B480A6893
:102BA0005023824202D100F067F8FEE70A686848C5
:102BB000824202D100F060F8FEE78C68654AE06A64
:102BC000904202D000F058F8FEE7A26B62488242C1
:102BD00002D000F051F8FEE70020604A0190FF2685
:102BE00015788DF80150167014788DF800409DF816
:102BF0000050544C15F05005257002D100F03CF8FF
:102C0000FEE79DF80000C04310F0500F09D000F01F
:102C100033F8FEE7401C01909DF8000040008DF85D
:102C200000009DF8000003060198F3D408280FBFA8
:102C300000200198C0F10700000200F4E060A060ED
:102C40009DF80100107000200A6A42F47F020A62B7
:102C50000A6A42F07F420A62C86100F093F80020DD
:102C6000606000F0EDF83E48016841F040410160CD
:102C700000F0D6F8002076BD83F31188BFF34F8FA4
:102C8000BFF36F8F7047502080F31188BFF34F8FD1
:102C9000BFF36F8F2B4A5168491C012951600AD13B
:102CA000304B1A68110606D080F31188BFF34F8F9E
:102CB000BFF36F8FFEE770472249486838B950204C
:102CC00080F31188BFF34F8FBFF36F8FFEE7401E75
:102CD000486008BF80F31188704780B5502080F3AA
:102CE0001188BFF34F8FBFF36F8FFFF75EF918B1F5
:102CF0001C484FF080510160002282F3118801BD11
:102D0000EFF305825020102A0E490BD3164B9B5C23
:102D10000A78934206D280F31188BFF34F8FBFF336
:102D20006F8FFEE78968114B1A6802F4E0629142E6
:102D300006D280F31188BFF34F8FBFF36F8FFEE78A
:102D4000704700000401002000ED00E071C20F4157
:102D500070C20F41052E0008AD2D000800E400E010
:102D600034EF00E004ED00E0F0E300E00CED00E003
:102D70004018491C1CBFB1F1010100F8012DF9D127
:102D8000704700000748084B002202600021816064
:102D90004FF47A711A68B2FBF1F1491E41600722C3
:102DA0000260704710E000E01C010020EFF3098092
:102DB000BFF36F8F264B1A681EF0100F08BF20ED6F
:102DC000108A20E9F04F106009B44FF0500080F3F2
:102DD0001188BFF34F8FBFF36F8FFFF782F94FF06A
:102DE000000080F3118809BC19680868B0E8F04F4A
:102DF0001EF0100F08BFB0EC108A80F30988BFF3F3
:102E00006F8F7047124B19680868B0E8F04F80F375
:102E10000988BFF36F8F4FF0000080F3118870476F
:102E20000C480068006880F308884FF0000080F3C9
:102E3000148862B661B6BFF34F8FBFF36F8F00DFA8
:102E4000DFF81400016841F4700101607047000070
:102E5000343B012008ED00E088ED00E070B5064647
:102E60000D46144600F0E5FB58B106F11C010CB10B
:102E7000086830B1C87FEDB2A84201D0002070BD13
:102E8000012070BD10B5DFF89C4304F11400FFF77A
:102E900016FE2046BDE81040FFF711BE2DE9F041B7
:102EA000044650250F4616460A2C18BF022C06D1A0
:102EB0005AB9012F08D0022F07D1112605E085F35A
:102EC000118800F064FCFEE7062600F065FF00288C
:102ED0001ED0022C00F06FF8DFF84813C86900F02C
:102EE00068F8886800F065F8112E04D1022F00F010
:102EF00062F8742707E0062E00F05DF8012F00F05D
:102F00005AF84FF4F2773846FFF7AAFC040002D1D2
:102F10004FF0FF3444E000F069FF050003D1204684
:102F2000FFF749FDF4E739462046FFF7A7FDA06803
:102F3000656040084000112EA06004F13A0504D1FC
:102F400004F15800FFF7BBFD1EE0062E1CD140F235
:102F5000B45104F19807A98741F21C10386004F5B8
:102F60008E7840F6683001F0AAF8786040F2B450EC
:102F7000396800F018F8C8F8000040F2B4507968D9
:102F800000F011F8C8F8040004F10C00FFF7A4FDEC
:102F900041F2883020626062A461022028706E7065
:102FA0002046BDE8F0814908B1FBF0F1012001F0B5
:102FB00076B810F1010F06D085F31188BFF34F8F5B
:102FC000BFF36F8FFEE770472DE9F84F88B00746D3
:102FD0001E460C4600F02DFB01284FF0500804D08F
:102FE00088F3118800F0D3FBFEE797F83B10DFF879
:102FF000345206290EBF019505F1140101918CB9D7
:10300000182102A801F07CF8387A02ACC1074CBF45
:103010000A2002208DF8090024B988F3118800F0F5
:10302000B6FBFEE76088A0BB97F83B004FF47C4AF4
:1030300000210628D0460091894608D0143506E0C4
:10304000A8F101084FF000091FFA88F0D0B16846D6
:1030500001F036FAB0B1BDF800B050469BFBF0F07D
:103060000AFB10BB0BF580601FFA80FB4FEA1B299F
:1030700049EA0B2189B2284600F0AEF80028DFD1DA
:1030800049EA0B29A4F80290608810B96FF07C051A
:1030900031E000251EB197F83B00062807D0618873
:1030A000019800F099F810B16FF06F0523E0608887
:1030B000F860010A41EA00213987A06818B10721A8
:1030C00001F0FBFA3865386D20B1026800F022F992
:1030D000B86207E007F12800002100220023002445
:1030E00080E81E00FEF7CAFE019807F10C01FFF709
:1030F000F6FCFEF7CBFE284609B0BDE8F08FF8B528
:10310000044694F83B00062841D104F1A005A868C4
:1031100008B101F05DFC04F5927001F031FD286802
:1031200008B1FFF748FC686808B1FFF744FCDFF816
:10313000F46094F87D10258FF768012915D106F108
:103140000800874223D0F86890F87D107F68012935
:10315000F5D0028FAA42F2D190F86C1011F0060F50
:10316000EDD0FFF7CCFFEAE77F6806F10800874261
:103170000DD0FA6802F178014879012804BF108F58
:10318000A842F1D108880028EED0421E0A80E069EA
:1031900038B1FEF773FE04F10C00FFF7C6FCFEF732
:1031A00075FE94F83B0011280DD107E0C868C5688A
:1031B0002846FFF7BAFC284601F00AFC04F1580142
:1031C00008680028F2D1606808B100F07BFE204654
:1031D000FFF7F1FB0020F2BD70B504460D4600F08C
:1031E000DBFD0026002818BF002C0AD0E06804F19F
:1031F000080200E04068904203D00168A942F9D17A
:103200000646304670BD10B50146DFF87802FFF77C
:10321000E3FF002420B1C46814B900F0B5FAFEE75A
:10322000204610BDC43E0120E1B581B0002200233C
:1032300001A80226C05C0A2500E0761E0A2790FB42
:10324000F7F705FB17000DF80600012EF8B2F4D1D0
:103250008DF80000002520B99DF80100012500B976
:1032600002251DF8050030308854521C6D1C022DBB
:10327000F7D9022B99BF2E258D5400208854521C5B
:103280005B1C032BD4D90846E6BD10B50C4611468D
:1032900002281A4604D12046BDE8104001F08ABF3A
:1032A000002010BD10B50446E06B20B100230022C1
:1032B000002102F013F8216C09B120468847606CA8
:1032C00000281EBF2168C1F30321002905D0E26C4C
:1032D0000A43E264006800F0BAFD217801F07F0142
:1032E0002160606800281CBF002900F0B0FD0020AC
:1032F000206010BD38B50546FEF7C0FD2946DFF851
:103300008401FFF769FF002400B10124FEF7BEFD30
:10331000204632BD100200F47F00110A40EA02602C
:1033200001F47F41084340EA12607047062000F034
:1033300096BCF8B50F4600F032F8002530B104F124
:103340006C06707C002818BF082802D06FF05E055C
:1033500023E039464FF6FF7000F0A5FEF08130689B
:10336000C0F3C000A8B1706B08B102F068FAB06B8E
:1033700008B102F064FA5A2104F1AE00FFF77EFBB7
:10338000C02104F5927000F0BBFE356045F00800E6
:1033900030600121204602F06EFB2846F2BD044653
:1033A00001220621FFF75ABD2DE9F8438046FEF7BA
:1033B000EEFDDFF8C863B56AF768B062451B4FF4ED
:1033C0007A7909D1012507E04FF00009B4F87400BB
:1033D00010B1484598BF814606F1080087421DD0CC
:1033E000FC68B4F874007F680028F5D0854203D2E9
:1033F000401BA4F8740007E00020A4F874002046E5
:1034000002F0EAFA0028E7D420680028DED0B8F1FC
:10341000000FD9D02046FFF745FFD7E74846BDE863
:10342000F2830CB4F0B5DFF854430A9BE7680A4610
:103430000020002501E035467F6804F108018F4235
:103440001BD0FE68B6F838C091B28C45F4D106F1B5
:10345000680191F815E0BEF1010FECD0B1F800C0A1
:1034600099B28C45E8D10999002901BFD6F858C016
:1034700005998C4530460028DED000B92846F0BCBE
:103480005DF80CFBD83E01202DE9F04180460C0090
:1034900008F16C071FD0FA6A788914235021B2FB17
:1034A000F0F040B1052806D20FF2EC2101EBC0008C
:1034B00050F8083D4168786A164620B953436425A0
:1034C000B3FBF5F37B62B86A30B951436422B1FBB8
:1034D000F2F1B96200E03E6B361DB608B60006F1A7
:1034E0001400FFF7BDF9050008D1386840F400204A
:1034F00038600821404602F0BEFA07E01421FFF7C9
:10350000BDFA2E61002C14BF7D63BD632846BDE863
:10351000F0812DE9FE4F074607F17406D7F80C013C
:10352000F46A884692469946002814BF0125002572
:103530004FF0000B44B901213846FFF7A5FF040006
:1035400008BF4FF0FF3A54D05DB1204602F071F948
:1035500058EA000005D1BAF1000F1CBFD3464FF066
:10356000000A4B4652464146204602F098F9B8F10F
:10357000000F82463DD1FDB10021BBF1000F01914A
:1035800003D0CDF804B04C4604E0F06A01A902F083
:1035900077F904466CB30199D7F80C3122463846C6
:1035A0009847002000902346F06A0022002102F094
:1035B000BAF900200190E8E7F86EC0F3C01068B9CE
:1035C000F06A02F033F9F169814207D3FA6E42F4EE
:1035D000C072FA6601203080FFF7A8FE386840F01C
:1035E0000100386097F84820D10748BF40F4807048
:1035F00038605046BDE8FE8F90F83B10062900D099
:1036000008E000F19C018868002818BF02F00BB99F
:10361000086870476FF01500704790F83B10062956
:1036200000D0F7E7D0F8A000002818BF02F001B9D9
:1036300070470146002011F1010F1CBF0029012035
:1036400070472DE9F84F002583460095DFF830815B
:1036500003E00028FAD0DFF82C81D8F8049033E09A
:103660003079C1072CD5706950B3012728E02CB1FF
:103670005046FFF7D2FF002800DD01277168480798
:1036800006D59AF87D00082814BF002847F00407E3
:10369000880715D524B15046FFF7AEFF00280DDC92
:1036A000B16AC1F3C02058B19AF87D00042807DD43
:1036B000C1F3003020B941F48051B16247F00207F4
:1036C000B7603D43D9F80490C14527D0D9F80CA084
:1036D0000AF1440630685845F4D19AF83B000027B7
:1036E0000628BDD1B06A002410F0060F08BF0124DF
:1036F0003179CA07C2D59AF87D10012909D1DAF8C3
:10370000800000281EBFC06EC0F340000028B5D066
:10371000B3E700F00A000A28A9D1AEE70098401CE0
:103720000128009095DD0021DBF8000000F070FB1F
:1037300020EA050111F007011CBFDBF8000000F0D2
:1037400067FBDBF8000045F01001BDE8F44F00F026
:103750007EBB01006FF0150000D1704780B54A6C48
:10376000002A1EBF1268002A082102D14A6822B12D
:103770004021104600F06BFB002002BDC43E01203A
:10378000E03E0120CC3E0120502080F31188BFF3A1
:103790004F8FBFF36F8F7047000000006400000080
:1037A00032000000640000002200000064000000FD
:1037B00019000000640000002DE9F04F89B040F6C8
:1037C000B83002F04FFBDFF8D8150C6803E0204654
:1037D00000F0A9F9E469002CF9D14FF47A7002F0F5
:1037E0003BFB002002F076FB02F09EFB02F00CFC9B
:1037F000DFF8B0650120706102F0B1FA02F084FADE
:103800000246B068694601F0F0FD20B94FF0FF3084
:103810008DF800005AE19DF9000010F1010F07D06A
:10382000B06801F016FFB169884288BF0846B061F0
:103830009DF900000D28EDD8DFE810F045016E007D
:10384000660063002C004801200016004801340087
:103850003000280024000E00019C206800F032FB9C
:103860002046FFF7A8F831E1019C204602F025FA36
:103870000028F8D0206840F004003DE0012002F06C
:1038800012FB23E10198FFF764FF1FE10198FFF7A6
:10389000D8FE1BE1019802F093FC17E10198FFF7B5
:1038A0002EFC13E1019C18208DF80C00217ACA0728
:1038B00011D402208DF80D00A26A100200F47F00DE
:1038C000110A40EA026001F47F41084340EA1260B5
:1038D00005900020A0620023218F080A40EA012001
:1038E000ADF80E0000212187182203A92046FFF71A
:1038F0006BFB206840F0100020602046FFF7D2FCF0
:10390000E4E002F0A4FEE1E00199C86A0028FAD0E0
:10391000C36801229847D9E0019C002C09E02046A9
:1039200001F056F803E00121204600F0C6F95FEAF5
:103930000804F0D0D4F838800020A0630025E06AA5
:1039400000281CBF206B0028E9D0A06A0E28E6D30F
:10395000D4F824A0BAF80C20082A07D0B2F5C16F19
:1039600000F09A804DF686518A424CD12228D6D357
:10397000082A3ED19AF80E10890001F03C090E3851
:10398000484528BFB9F1140F33D39AF817704A4647
:103990002146504602F050FF0546606A9AF80E1024
:1039A00000F8061C012D2ED1BAF80C00082807D10A
:1039B000B9F1140F04D9204602F073FF050071D04D
:1039C000112F0ED0204602F026FD01285CD0BAF857
:1039D0000C00082805D1DAF81A100AF1060002F0E6
:1039E00037FD042D5ED0012F50D0062F02D0112FAD
:1039F0000AD04FE0204602F047F9012808BF03250E
:103A00003068401C30604DE0002502952046D4F817
:103A100024B000F0CDF900F11607BBF82600010A2A
:103A200041EA00201FFA80F9BBF80C0008280BD1EE
:103A3000204600F0BDF9BBF81020110A41EA02212E
:103A400089B2081A48452DD3A06AB84228BFB9F1F7
:103A5000080F27D3A9F10801C01B81423CBF7F1882
:103A6000A762BBF82200A08602AADBF81A006061F8
:103A70002046BBF8241002F0ABFB012808BF032549
:103A800010D0029801280DD104250BE0204602F049
:103A900030FF06E0002505E02A280AD3204602F080
:103AA000B5FB0546022D3FF43EAF02D3042D01D0F5
:103AB00008D334E770680028FBD174604FF4FA60D3
:103AC00002F0C5F933E7019800F072FAF0680028B7
:103AD00004D00021F16000F0D2FD04003FF48CAE70
:103AE0006069C0F3400030B1204600F061FA6069BF
:103AF00020F002006061204600F0C4FDEDE7DFF831
:103B0000A4020069704780B5816C41F010018164A6
:103B1000002000F0B4FC02F007FABDE8024042F2D7
:103B2000107002F09CB91CB5044600216069400881
:103B3000400060618DF800100194684600F099F82B
:103B40000128606907D040F0020060610121DFF8C0
:103B50005402C16013BD20F00200606113BD2DE965
:103B6000FF4104460D46DFF8408216461F46414697
:103B7000002002F0F5FE0A980290019700962B466D
:103B8000224608F12001404600F0FEFCBDE8FF415E
:103B90007CB500F074FD0024502600F02CF800F0F5
:103BA0005EFA002208211720DFF8F85101F057FBD8
:103BB000A86000F020F80FF21C2101F0EDFD00F0EC
:103BC00073FE012811D1FFF75DF905F11001042002
:103BD00001910090002340F28A220FF20021DFF8C9
:103BE000CC01FEF70FF8044603E0A86801F040FDA1
:103BF000AC60204676BD30B986F31188BFF34F8F95
:103C0000BFF36F8FFEE77047502080F31188BFF33A
:103C10004F8FBFF36F8F704730B5039C7CB1A56C9D
:103C2000C5F380055DB908B12568056009B1606814
:103C300008600AB1A06810600BB1E068186030BD80
:103C4000F8B500F0A2F818B100F003F8FFF7E4FFB0
:103C5000F1BD009033462A46214638467047E0B50C
:103C60008DF80000002100200190684600F001F866
:103C70000EBD70B506464B4D96F900000C466969BD
:103C800011B960B1002070BD062808D1012002F0F2
:103C90000AF9A86801F0D0FC08B1012070BD00F05D
:103CA0007BF9012801D104B10024A86822463146DD
:103CB000BDE87040002301F011BBF0B5054685B0AA
:103CC000AA6A3C2A0C4608D2002102E0686A8154A4
:103CD000521C3C2AFADB3C20A86244B92846A96A57
:103CE00000F014F910B1A96A816201240546002D83
:103CF00036D00022696A00920E46286B40B9888946
:103D000008282DD1D6F81E00072100F0EEFC28630C
:103D1000286B28B3476FB08908280CD1D6F81E004D
:103D2000009005F1300203A9684602F01CFC01284E
:103D300008BF03A900D0B11D06223046FDF736FAB0
:103D4000286B00F140010622B01DFDF72FFA00F0AC
:103D500023F9012806D1FB682246294638469847B0
:103D600005B0F0BD74B102218DF8041002954FF03A
:103D7000FF3101A8FFF77DFF0028F1D1284600F0B0
:103D800027FEEDE7FFF740FFFEE707460C46154626
:103D90001E46002000F079BC0248406970470000D0
:103DA000503F0120140000207C3B0120B93700085F
:103DB000426A91894DF68650814201D12820704790
:103DC0001420704720B1017AC80701D52820704718
:103DD000142070474E657445766E740049502D74FA
:103DE00061736B00FFFFFFFFFFFF000010B51C2099
:103DF000FEF736FD040004D000202060201DFEF7F1
:103E00005EFE204610BDBFF34F8FBFF36F8F70472C
:103E100070B504460D46502014B900F011F8FEE7C5
:103E200015F07F4F02D000F00BF8FEE7FEF72BFFF6
:103E3000266826EA05052560FEF73EFF304670BD80
:103E400080F31188BFF34F8FBFF36F8F7047F8B5C2
:103E500004460E460025502014B9FFF7F1FFFEE797
:103E600016F07F4F02D0FFF7EBFFFEE7FEF706F8F4
:103E7000216822690E43266018E0984215D15FEA56
:103E8000CC1048BF1D4341F000711046FEF7D0F939
:103E90000BE0D2F800C056682CF07F435FEA4C1765
:103EA00001EA0300E9D40028E9D1324604F10C000C
:103EB00021688242EDD121EA05052560FDF7E6FF84
:103EC0002068F2BD38B50446502524B985F3118821
:103ED000FFF799FFFEE7FDF7D1FF03E04FF0007118
:103EE000FEF7A6F9606848B1206904F10C01884228
:103EF000F4D185F31188FFF786FFFEE7FDF7C6FFD3
:103F00002046BDE83240FEF756BD0000B0B505467C
:103F10000F460021384600F001FD040019D0606A08
:103F200028B9502080F3118800F0B4F8FEE7AA6A9F
:103F3000BA4288BF3A46A76269696161AB8EA386BF
:103F4000E98EE186EB6AE362296B2163696AFDF71A
:103F50002DF92046B0BD38B1401A0A3810F0030FD1
:103F600001D100687047002070470021F3E700B9D5
:103F70007047A0F13001097801F0F001402912BF2B
:103F800060292A21FFF7E7BF502080F31188BFF393
:103F90004F8FBFF36F8FFEE710B5FEF742FA04466E
:103FA000FFF7ADFD844201D1012010BD002010BDFE
:103FB00070B50546502125B981F3118800F06AF8E3
:103FC000FEE7A86820B981F3118800F063F8FEE7E6
:103FD000002001F075FF284600F057FB14E041F087
:103FE0000801A16409E0A16C21F01001C1F3C00037
:103FF0000028A164F3D000F042FA204602F0E5FB6D
:104000002146284600F04DFB0400ECD1A968284663
:10401000884701281DD168691B4E40F00100686186
:10402000284600F032FB0446C4B1A06CC0F3800007
:1040300028B9202204F120012046FDF7B7F82068B6
:1040400070612046FFF75FFD2146284600F029FBFE
:10405000E9E7BDE87040002001F050BF70BD10B529
:10406000FFF79AFE502410B100F012F8FEE707495E
:10407000086810B100F00CF8FEE7FFF740FD10B142
:1040800000F006F8FEE710BD300000201C00002004
:1040900084F31188BFF34F8FBFF36F8F704788424F
:1040A00038BF084670478842C8BF084670478842F4
:1040B00088BF08467047884288BF0846704739B9AC
:1040C000502080F31188BFF34F8FBFF36F8FFEE74F
:1040D0000818401EFFE7B0FBF1F048437047014667
:1040E00048780A78000440EA02608A78C97840EA91
:1040F0000220084370470178407840EA0120704769
:104100000022FEF7C3BC00002DE9F8478BB002F097
:10411000B3FF00F067F914216846FFF7F1FF0020B4
:10412000059040F63345DFF8F803DFF8F8A302689E
:10413000DFF8F443DFF8F463DFF8F473DFF8F483B7
:10414000DFF8F49342F010020260016801F0100100
:1041500000F042F942F004020260016801F004013B
:1041600000F03AF942F080020260016801F080013B
:1041700000F032F942F020020260016801F02001F3
:1041800000F02AF942F040020260016801F04001AB
:1041900000F022F942F008020260016801F0080113
:1041A00000F01AF942F001020260016801F0010119
:1041B00005910021059A05910022036843F002034E
:1041C00003604FF40851006800F002000590059864
:1041D000504603F04AF800F0F1F8012200F0E9F847
:1041E00000224FF40041204603F03FF80022294608
:1041F000304603F03AF800224FF47861384603F075
:1042000034F800224FF44061404603F02EF80022BB
:104210004FF48071484603F028F801210191029182
:104220004FF420420021039100926946504602F06B
:104230003DFF0121019102914FF480420021039141
:1042400000926946204602F031FF4FF40040002101
:10425000009001220291039101926946204602F0EA
:1042600025FF0021012202910391019200956946E8
:10427000304602F01BFF4FF4786200F0A5F8384694
:1042800002F014FF0021019101224FF480550292A7
:1042900000956946384602F009FF4FF4406001215D
:1042A000009000F093F8404602F000FF4FF40070D9
:1042B0000121009000F08AF8504602F0F7FE4FF41A
:1042C000807200F081F8484602F0F0FE07AE002050
:1042D00000210022002386E80F001C216846FFF71A
:1042E0000FFF964E9649316000207822B06064211D
:1042F0003061B0617260F160304602F0D9FF08B100
:1043000000F02CF9079507A9304603F016F908B11B
:1043100000F024F9304603F015F808B100F01EF95A
:1043200030220092322100220191029204926946C9
:104330000422304603F0D4F808B100F00FF93046FB
:1043400003F0E8FA7F48B06406F1480003F018FB78
:1043500008B100F003F900F031F8002200F029F86C
:1043600006F1580100F01EF87DA10FF27D10FDF757
:1043700049FC06F1600000900FF208230FF20022C2
:104380000FF2F8110FF2F010FFF7E9FB06F15C01F4
:1043900000F008F875A10FF26510FDF733FCFDF78A
:1043A00027FDFEE703200191009000234FF4807267
:1043B00070474FF48041204602F057BF01224FF46E
:1043C0000041504602F051BF0092012101910022AC
:1043D000029203926946704705910021059B059161
:1043E0000268704780B592B0302106A8FFF788FEBA
:1043F000142101A8FFF784FE0020009002225248F9
:10440000016841F080510160006800F08050009028
:104410000020009900904D48016841F480410160FE
:104420000121006800F48040009006A8009B0692DD
:10443000099110220A92022100220C910D9208216A
:1044400032220E910F92022104221091119203F058
:10445000E3FA08B100F082F8022202920F20002154
:10446000019003914FF4805205910492012101A81B
:1044700003F05CFC08B100F071F813B000BD002837
:1044800000D0704710B53249086888B008B90124D7
:104490000C606B4601AA02A903A8FFF7D1FB0398A1
:1044A00000F00BF8029800F008F8019800F005F809
:1044B000009800F002F808B010BD04A9FEF7B4BEE1
:1044C0001CB504466946234803F072FA18B90099EE
:1044D0002160012016BD002016BD80B56846FFF79B
:1044E000EFFF009802BD000080B58021104802F067
:1044F000C0FE4FF44870FDF74CFCF6E780B54FF472
:1045000000710B4802F0B5FE4FF49660FDF741FCD8
:10451000F5E701681048814208BF03F0C5BC704749
:1045200030380240000802400014024000180240E7
:1045300000100240000C0240000002404800002031
:104540000040014000080650403802400070004022
:10455000603F0120900000200004004072B6FEE79A
:104560004C454420746F67676C6500005365636F4A
:104570006E64205461736B000A190AC8FFFFFF00C4
:104580000A190A01080808082DE9F0475FEA00083F
:104590000C461646994618BF002C5ED0099F089D10
:1045A000D4F878A07C212046FFF7AAFDC4F878A0B3
:1045B000B078F17899F80120000440EA0160717840
:1045C000367840EA0120064399F8021099F8030072
:1045D000090441EA006199F8000041EA022101431F
:1045E0006160A978EA782878090441EA02616A786A
:1045F00041EA02210143A160B978FA7838780904C8
:1046000041EA02617A7841EA02210143E160202215
:10461000616866EA0101A16104F120002146FCF70E
:10462000C5FD266206220A9904F14000FCF7BEFD92
:10463000C4F87480D8F8180008B9C8F81840984829
:10464000816E19B9A167846607E00146A14204D0D2
:10465000886F0028F9D1A0678C67BDE8F08768B142
:1046600090490A681AB90860002106E00A468242A9
:1046700004D0D1690029F9D1D061C161704789485E
:104680000068704700B1C069704701468448806E79
:1046900000E0806F20B100291CBF426F8A42F8D130
:1046A0007047024639B1886F30B12AB1416F9142EB
:1046B00002D0806FF8E7E8E7704710B5784C2368C0
:1046C0000246A06E5B1C0829236006D204EB81031E
:1046D000996C491C996400E0806F28B122B101688F
:1046E000002901D09142F7D110BD0A4601460020B1
:1046F00030B56B4DAC680B46A96E641C0E2AAC60DD
:1047000006D205EB82042269521C226100E0896F07
:1047100071B100281CBF4A6F8242F8D113F1010F1A
:1047200006D04D680C6805EA03022540AA42EED186
:10473000084630BD2DE9FE4688B081460C461D4630
:1047400004A81021FFF7DCFC6E46002000210022A7
:10475000002386E80F004DF6865084420CBF4FF0D0
:10476000010A8A464846FFF790FF129F040004AEF4
:1047700023E00622394604F1400003F09DFB401E71
:10478000A16C8041C00FC1F380018A4510D103990B
:10479000F460491C0391226829688A4203D1009978
:1047A0000494491C009118B1B4600298401C029016
:1047B00021464846FFF775FF0400DAD100210020AA
:1047C0005DF82120012A03DA491C0429F8DB01E005
:1047D00056F821000BB0BDE8F086F0B505468BB069
:1047E0000020502311B900F04AF8FEE78A1C12F0AD
:1047F000030F02D000F043F8FEE7294BDA68521CA1
:10480000DA600DF11C0C8C890022002300260027A1
:104810008CE8CC000DF10C0C082C8CE8CC001AD0E4
:10482000B4F5C16F29D1888AB0F5807F07D101F135
:104830001C0607A833680360D1F8260010E0B0F525
:10484000007F0ED101F11C0603A833680360D1F884
:104850002600079005E0D1F81A000790D1F81E0055
:104860000390062201A8FCF7A1FC01AB009307AA64
:1048700003AB21462846FFF75DFF0BB0F0BD83F385
:104880001188BFF34F8FBFF36F8F70470448806E5E
:1048900000E0806F10B181680029FAD070470000F5
:1048A000203D0120503F012070B55A4CA06908BB43
:1048B0001221122000F003FDA06100F01FF800BFDC
:1048C00056A100F069FF2046FEF7F9F800263C21CA
:1048D000514A7143551800206862761C2846FEF73D
:1048E000FBF8ED6029462046FEF706F9122EEED3BE
:1048F00012206061A06900B1012070BD38B950205C
:1049000080F31188BFF34F8FBFF36F8FFEE77047BF
:1049100000281CBF0A38FEF74EB87047F8B50446A9
:1049200000250020462C34BF462414F1020F01D28A
:10493000A41C00E0012014F0030F0AD004F00303CC
:10494000C3F104034FF0FF32D21AA2422CBF1C194C
:10495000012014F10A0F39D2002804F10A0635D1DA
:10496000B6F1004F32D22B4FB86978B300F0BEFDDC
:1049700001282BD1FEF787F9F868C5682846FEF7AD
:10498000D4F8FEF799F938687969884288BF0846F3
:104990007861686A38B1502181F31188BFF34F8F75
:1049A000BFF36F8FFEE78CB13046FDF759FF28B992
:1049B0006862284600F00CF8002507E040F80A5B22
:1049C00000226862AC62EA622A63AA632846F2BDEA
:1049D00070B505460F4E686AFFF79AFF00216962BD
:1049E000A962FEF750F92869B04208BF012404D03B
:1049F00029463046FEF773F80024FEF75DF93CB90E
:104A0000B069BDE8704000230022002100F066BCC0
:104A100070BD0000F03E0120983501204E657442C3
:104A2000756653656D000000024600208A1A521E0A
:104A300058BF0120704702460020521A521E58BF2C
:104A40000120704702460020521A58BF01207047CB
:104A500000F108024A6003698B60026951600161DC
:104A600008610168491C0160704710B50446FDF7F4
:104A70008EFA2168401A10BD30B502460020D2F8E7
:104A8000B04000E0646802F1AC039C4204D0E568E9
:104A90002B688B42F6D1284630BD2DE9F843884675
:104AA000DFF804178146086817461C4608B9002637
:104AB00023E0CD68EE68502015B900F021F8FEE73C
:104AC00016B900F01DF8FEE72846FEF72EF8002C78
:104AD000294614BF09F1A40009F19000FFF7B8FFBF
:104AE000FDF755FA3061002070610CB14FF4802061
:104AF00070617760B760C6F800803046BDE8F28329
:104B000080F31188BFF34F8FBFF36F8F704780B56D
:104B1000D0F8A41009B1002002BD81690069401CD1
:104B2000FFF790FF00B1012002BD10B50168002918
:104B30000FBF0024C068C468FDF7F7FF204610BD12
:104B4000016809B900207047C068C068704710B597
:104B50000446A06A18B104F11800FDF7E6FF002230
:104B60002260A2606261E06B18B104F12C00FDF7D5
:104B7000DCFF04F12C01BDE81040DFF82C0667E7EC
:104B800070B50546002405F1900603E0002CFAD02C
:104B900005F1A406B06810F1010F07D103E0F16838
:104BA000C868FFF7D4FF30680028F8D1641C012CD6
:104BB000ECDD70BD2DE9F843DFF8EC450746606990
:104BC000894615469846D0B92046FDF778FF4FF440
:104BD0008050FDF745FE606188B14FF48051FFF7CA
:104BE0008FFA0026616901EB86108063406200F154
:104BF0002C012046FFF72CFF761C402EF2DB099E8D
:104C0000089C07F19000FDF75AFF07F1A400FDF79B
:104C100056FF07F14000FDF752FF07F15400FDF782
:104C20004EFF07F16800FDF74AFFC7F80490BD602A
:104C3000334622464146384601B0BDE8F04330B520
:104C4000002505600124046073B100F1BC056C8887
:104C500004B16B802C88A34200D32CB94468B4FB08
:104C6000F3F45C4344602B804FF4FA738363C160B8
:104C700001618161C261026242638262C26230BDCF
:104C80002DE9FE4F0C9E00920F46002131608046B8
:104C9000009AD8F81010D219521A4FF0FF34B7EB1F
:104CA000010E20460AD5002A08DDDDF80090CEF17D
:104CB0000005CE44CDF800E0EF19356008F13C0660
:104CC00000253570B942C8F8305044D100998B4264
:104CD00040D3D8F81050B06E4F19002837D0019744
:104CE00002E02046FFF733FFDDF800A0D6F874900D
:104CF0000024AA4417E0D9F80CB0DBF800002946DC
:104D0000FFF7A0FE68B1DBF800005146FFF78CFE0C
:104D100038B12CB12168DBF80000FFF785FE00B147
:104D20005C46D9F8049008F1AC008145E3D1002C31
:104D3000D7D100F051F820B18168CF19FFF707FFF4
:104D4000F7E70198B8421CBF391AC8F83010C8F804
:104D5000107000203EE0491EB9423BD0002A39DDE8
:104D6000934237DB009DD8F81090ED1901E0806880
:104D70004519294600F031F80028F8D1DFF82C0455
:104D80007064390201F47F01380A41EA076100F4D6
:104D90007F40014341EA1761B164280A290201F406
:104DA0007F0141EA056100F47F40014341EA15615A
:104DB0000C20F164307000F00FF850B9009A012314
:104DC00039464046FFF769FE00280CBF3070A7EB5C
:104DD00009042046BDE8FE8F394640464CE61018CF
:104DE0008842A8BF401A70472DE9F04705460026C3
:104DF000EC6F002C0F469846914640D06268A06840
:104E000090423CDA6169C1F30041C1BBB8B3111AE9
:104E10003846FFF748F9A168636841189942A8BF6E
:104E2000EE67A1603F1A696B411869630646024646
:104E300041464846FFF7D3FF814620E06168384687
:104E4000FFF731F98246C4F808A0C4F80C90524626
:104E500041464846FFF7C3FF8146686B504468638C
:104E600004F1180105F15400FFF7F2FDA168606834
:104E7000A7EB0A0756448142A8BF0024EC67002F25
:104E800008DDB5F8BC20696B00232846FFF705FE56
:104E90000400D3D13046BDE8F087D0F89000401E22
:104EA0008041C00F7047F8B506460F4606F1540022
:104EB000FFF746FE050014D0346AB06AA0422CBF4A
:104EC000041B002421463846FFF7F1F8A9683F1A71
:104ED0008F428041C043C00F24B1B2680C19A24276
:104EE00000D20020F2BDF8B50646154600200F4658
:104EF0002860316C91B906F16800FFF721FE0400CB
:104F00000ED0B66B04F11000FFF7AFFD616901220E
:104F10008A405643B0423CBF301A28600120F2BD9F
:104F200006F15400FFF70CFE04000DD03946304660
:104F3000FFF7B9FF40B13068C0F340000028EDD062
:104F4000A06861688842E9DA0020F2BD2DE9F843E3
:104F500005468846914605F14000FFF7E6FD00272B
:104F60000400A86AE8623ED105F16800FFF7E8FD99
:104F7000040015D06069AE6B012181404E4304F1FD
:104F80001000FFF772FD864209D205F16800FFF7B5
:104F9000CCFD0446606920F47F40606100E000249D
:104FA0000CBB05F15400FFF7CBFD04001BD02868B3
:104FB000C0F3400018B1A0686168884204DB414634
:104FC0002846FFF770FF08B900240CE005F15400F3
:104FD000FFF7ABFDE96F0446A14208BFEF67216808
:104FE000A0684118A9626CB3A06A38B1502181F35E
:104FF0001188BFF34F8FBFF36F8FFEE704F11801E5
:1050000005F16800FFF724FD616941F480316161B9
:10501000481C60F30701616101F0FF01042908D118
:10502000B5F8BC20A9685000884202D25204120C84
:10503000AA60FCF7ACFF20612068E862E168C9F86B
:105040000010A7683846BDE8F2832DE9F84F054601
:105050008946D5F89CA093464FF0000808E0002C44
:105060001FBFB96A002907F11800FDF75EFDB144C2
:1050700005F198018A454ED059464846FFF7D4FCC1
:10508000002848D0DAF80C70DAF804A039684846ED
:10509000FFF7D1FC00240028EAD13A6891453AD1C3
:1050A0007869BE68C0F3404058BB5946B018FFF756
:1050B000C2FC80BB786940F40030786100F0FF00EA
:1050C000012802BF38683018584519D107F110007F
:1050D000FFF7CBFCAA6B824206DBC2EBC2021018C0
:1050E000811000EB517006E04000062101FB020038
:1050F000821000EB5270C0103228B8BF3220A86373
:105100000124286A8145AAD130182862B044384663
:10511000FFF71DFDABE74046BDE8F28F10B50A462C
:10512000016A8C1A01D4002010BDBDE810408CE744
:105130002DE9F84304468846266AFFF786FF676F25
:10514000814621E0FD6868697F68C0F34040D8B9B6
:1051500028684146FFF768FCB0B16869010A491C3C
:1051600061F30F20C0F30721032968610CD1000A05
:105170000002686105F11800FDF7D7FC05F1180180
:1051800004F14000FFF764FC04F170008742D9D1BC
:10519000074A1168002903DD31464046FFF74BFC02
:1051A0004846BDE8F28300000C3F01200101050ADA
:1051B0005C3F01201CB50C46102A38BF002405D3E3
:1051C0000168009121460098FEF72EF8204616BD92
:1051D00070B50D460446502114B900F080F9FEE781
:1051E000E06B002838D04FF0FF32B2FBF0F2206CB9
:1051F000824231D3FDF747FD206CE16B226800FB52
:1052000001F6491E484316441044A6600023A363D8
:10521000E06004F1440162604FF0FF3008704870B4
:1052200075B92069A0B104F11000FCF79BFF78B1BB
:10523000DFF8C8054FF08051016000F03BF807E04F
:1052400004F11000FDF73BFC04F12400FDF737FCEE
:10525000FDF732FD012070BD00F041F9FEE7F8B521
:1052600004000D4617461FD04FF0FF30B0FBF4F09E
:10527000A84219D305FB04F010F1500F14D250309E
:10528000FDF7EEFA06000DD0002D0EBF366006F1D8
:1052900050003060F463356401213046FFF798FF19
:1052A00086F84C703046F2BD00F001F8FEE7502061
:1052B00080F31188BFF34F8FBFF36F8F704710B526
:1052C0000C4640B1A04206D302220021FFF7C7FFDF
:1052D00000B1846310BDFFF7EAFFFEE72DE9F64752
:1052E0008A4682B006461F460024502116B900F0B7
:1052F000F6F8FEE7BAF1000F01D1306C38B9022F91
:1053000036D1F06B012833D000F0E9F8FEE700F069
:10531000E6F8FEE7039800284ED014B900F06BF9C8
:105320000124FDF7C9FCFCF7A9FDFDF7ACFC06F173
:10533000440000F065F904BF0021017000F069F934
:1053400004BF00214170FDF7B7FC00F05EF90028B2
:1053500046D1FDF798FCB16BF06B814214BF00257C
:105360000125FDF7A9FC5DBB00F0B7F8FCF78EFD49
:10537000FDF789FCB16BF06BDFF8808481424FF060
:10538000805901D3022FC5D13A465146304600F02C
:105390007CF9716A29B106F12400FCF7E3FE08B933
:1053A00004E018B1C8F80090FFF784FFFDF784FC13
:1053B000012004B0BDE8F087FDF77EFC0020F8E78F
:1053C000039906F11000FCF7B4FE00F086F8FCF734
:1053D0005DFD0028CCD1C8F80090FFF76BFFC7E750
:1053E00000F07BF8FCF752FDE8E72DE9F7430F46A4
:1053F00006460024502116B900F071F8FEE747B9BF
:10540000306C30B100F06BF8FEE700F066F8FCF7A6
:105410003DFDFDF738FCB56BDFF8E093002D4FF054
:10542000805836D10298002849D014B900F0E3F82A
:105430000124FDF741FCFCF721FDFDF724FC06F1FA
:105440004400425712F1010F04BF0021017000F027
:10545000E0F804BF00214170FDF72EFC02A9684668
:10546000FCF760FF002830462DD100F08AF90028B3
:10547000CBD0029906F12400FCF75BFE00F02DF87A
:10548000FCF704FD0028C4D1C9F80080FFF712FF23
:10549000BFE73946304600F02CF96D1EB563306920
:1054A00040B106F11000FCF75DFE18B1C9F80080AC
:1054B000FFF700FFFDF700FC0120BDE8FE83FDF7CC
:1054C000FBFB0020F9E700F028F9FCF7DFFC304691
:1054D00000F057F900289CD0F3E730461DE181F336
:1054E0001188BFF34F8FBFF36F8F70472DE9F341E2
:1054F000002482B00546A046502115B9FFF7EFFF02
:10550000FEE7286C30B1FFF7EAFFFEE700F092F803
:10551000FCF7BCFCFDF7B7FB00F080F837D103982F
:10552000002862D014B900F066F80124FDF7C4FB2E
:10553000FCF7A4FCFDF7A7FB00F060F804BF002116
:10554000017000F066F804BF00214170FDF7B4FB64
:1055500000F05BF8002828462ED100F012F9002850
:10556000D4D0286838B9FDF78EFBA868FCF75DFF3A
:105570008046FDF7A1FB00F058F800F05BF8FCF75F
:1055800085FC0028C6D13760FFF794FEC2E7401EB5
:10559000A863286810B9FDF718F8A860286938B121
:1055A00005F11000FCF7DEFD10B13760FFF782FE59
:1055B000FDF782FB01201BE000F0AFF8FCF766FC72
:1055C000284600F0DEF80028A4D0B8F1000F0ED075
:1055D000FDF759FB686A00281DBF286B0168C1F1FF
:1055E00005010021A868FCF7A3FFFDF765FB00207B
:1055F00004B0BDE8F0816846FCF78BBE05F14400BD
:1056000090F9002012F1010F704703A96846FCF7DA
:1056100089BE90F9012012F1010F7047A86BDFF8E5
:10562000DC6100284FF080577047039905F1240092
:10563000FCF77FBD284670E010B5040002D1FFF7EB
:1056400036FEFEE7FDF71FFBA46BFDF735FB20469A
:1056500010BD38B5040002D1FFF729FEFEE7FDF7C3
:1056600012FBE56BA06B2D1AFDF726FB284632BD19
:1056700010B5040002D1FFF71AFEFEE700F0A9F80A
:105680002046BDE81040FDF796B9F8B50646154628
:10569000B46B326C002742B9306830BBB068FCF79D
:1056A00006FF00210746B1601FE065B97068FBF78F
:1056B0007DFD7168306C0844B1687060884214D315
:1056C0003068706011E0F068FBF770FD306CF268D4
:1056D00040420244F26031688A4202D2B268104409
:1056E000F060022D01D104B1641E641CB46338461D
:1056F000F2BD026C002A0B4600D1704710B5C46899
:1057000081681444C4608C4224BF0468C460C168CA
:10571000BDE810401846FBF749BDF8B50546FDF752
:10572000B2FA05F1440494F9016007E005F12400A0
:10573000FCF718FD08B1FCF72DFE761E70B20128AB
:1057400002DB686A0028F1D14FF0FF366670FDF782
:10575000B3FAFDF798FA94F9007007E005F110002C
:10576000FCF700FD08B1FCF715FE7F1E78B201289A
:1057700002DB28690028F1D12670BDE8F140FDF771
:105780009BBA10B50446FDF77EFAA06B441EA441F7
:10579000FDF792FAE00F10BD70B5002210B9FFF7C7
:1057A00086FDFEE7A1B10026154C04EBC6056B682B
:1057B000984209D0002A02BF54F83630002B2A46FE
:1057C000761C082EF1D300E02A460AB11160506021
:1057D00070BD10B510B9FFF76AFDFEE70023084958
:1057E00001EBC3025468844203D05B1C082BF7D33F
:1057F00010BD002041F83300506010BD04ED00E002
:10580000843E012000691218511A491E814228BFA6
:10581000091A0846704700691218511A814228BFB8
:10582000091A0846704702688168EBE70268C16898
:10583000E8E782680168EEE782684168EBE70021EB
:105840008160002303600022C2604160704770B530
:1058500004460D462669FFF7EFFF6168A84288BF3E
:1058600028464018B04228BF801B606070BD0346C8
:1058700000201B68D21AC91A8A4228BF012070472B
:1058800070B504460D462668FFF7D3FFA119143101
:1058900029602269911BBDE87040FEF70CBC2DE920
:1058A000F04707460C4690461D46FFF7BCFF844272
:1058B00034BF001B00202946FEF7FDFB5FEA00090C
:1058C00030D03D69BE681CB1A619AE4228BF761B18
:1058D000B8F1000F15D04946A81BFEF7ECFB824635
:1058E00007F11400524641468019FBF75FFCCA4598
:1058F00007D2A9EB0A0208EB0A0107F11400FBF733
:1059000055FCFCF7BBFA24B94E44AE4228BF761BC7
:10591000BE60F96832463846FFF7A9FF00B1FE6065
:10592000FCF7B4FA3BE02DE9F04707460C469046F9
:105930001D46FFF77EFF844234BF001B002029462E
:10594000FEF7B9FB5FEA000929D03D693E681CB14A
:10595000A619AE4228BF761BB8F1000F15D04946F4
:10596000A81BFEF7A8FB824607F1140081195246D6
:105970004046FBF71BFCCA4507D2A9EB0A0207F118
:10598000140108EB0A00FBF711FC0898002808BF77
:10599000002C04D14E44AE4228BF761B3E604846E0
:1059A000BDE8F08738B5DFF8544305462068002885
:1059B0001CBFA842FDF7A3FB256031BD38B5DFF859
:1059C00040430546206800281EBFA842B0F87A1060
:1059D000FDF7AFFC256031BDF8B5074607F16C0651
:1059E0000025707C0024052804DBB06B10B138461C
:1059F00002F0C9FCF06BE8B13068C0F34010A0B908
:105A0000707C50B13846FEF7DDF900F11402F16BFD
:105A10000123384602F0C4FAF463384600F0F4F883
:105A2000022828BF0124F06B18B1F06BFEF7D0FFFD
:105A3000F56374B9717C052901DA022902D138466F
:105A400002F04AFA384600F0DFF8384602F05AFD14
:105A500005462846F2BD10B500F16C04FCF797FA34
:105A6000206200202168207621F4C0612160FCF7CB
:105A70008EFAE06110BD2DE9F84F074607F1740575
:105A80008B46687A0646052E3C4603DB082818BF7D
:105A9000012000D10020052904DB082918BF4FF0A0
:105AA000010901D14FF000094FF00008022E1CBF80
:105AB000032E042E02D1082908BF012048454FF0CB
:105AC000500A47D0F96E01F00C00042804BFEC68BE
:105AD000002C02D100F091F8FEE7B9F1000F59D087
